{
  "_format": "hh-sol-artifact-1",
  "contractName": "SmartWill",
  "sourceName": "contracts/SmartWill.sol",
  "abi": [
    {
      "inputs": [
        {
          "internalType": "address",
          "name": "_heir",
          "type": "address"
        },
        {
          "internalType": "uint256",
          "name": "_transferAmount",
          "type": "uint256"
        },
        {
          "internalType": "uint256",
          "name": "_transferFrequency",
          "type": "uint256"
        },
        {
          "internalType": "uint256",
          "name": "_willActivateWaitingPeriod",
          "type": "uint256"
        }
      ],
      "stateMutability": "payable",
      "type": "constructor"
    },
    {
      "anonymous": false,
      "inputs": [
        {
          "indexed": true,
          "internalType": "address",
          "name": "heir",
          "type": "address"
        },
        {
          "indexed": false,
          "internalType": "uint256",
          "name": "amount",
          "type": "uint256"
        },
        {
          "indexed": false,
          "internalType": "uint256",
          "name": "timestamp",
          "type": "uint256"
        }
      ],
      "name": "FundsTransferred",
      "type": "event"
    },
    {
      "anonymous": false,
      "inputs": [
        {
          "indexed": true,
          "internalType": "address",
          "name": "owner",
          "type": "address"
        },
        {
          "indexed": false,
          "internalType": "uint256",
          "name": "timestamp",
          "type": "uint256"
        }
      ],
      "name": "PingSent",
      "type": "event"
    },
    {
      "inputs": [],
      "name": "checkAndTransfer",
      "outputs": [],
      "stateMutability": "nonpayable",
      "type": "function"
    },
    {
      "inputs": [],
      "name": "createdAt",
      "outputs": [
        {
          "internalType": "uint256",
          "name": "",
          "type": "uint256"
        }
      ],
      "stateMutability": "view",
      "type": "function"
    },
    {
      "inputs": [],
      "name": "getBalance",
      "outputs": [
        {
          "internalType": "uint256",
          "name": "",
          "type": "uint256"
        }
      ],
      "stateMutability": "view",
      "type": "function"
    },
    {
      "inputs": [],
      "name": "heir",
      "outputs": [
        {
          "internalType": "address",
          "name": "",
          "type": "address"
        }
      ],
      "stateMutability": "view",
      "type": "function"
    },
    {
      "inputs": [],
      "name": "lastPing",
      "outputs": [
        {
          "internalType": "uint256",
          "name": "",
          "type": "uint256"
        }
      ],
      "stateMutability": "view",
      "type": "function"
    },
    {
      "inputs": [],
      "name": "owner",
      "outputs": [
        {
          "internalType": "address",
          "name": "",
          "type": "address"
        }
      ],
      "stateMutability": "view",
      "type": "function"
    },
    {
      "inputs": [],
      "name": "ping",
      "outputs": [],
      "stateMutability": "nonpayable",
      "type": "function"
    },
    {
      "inputs": [],
      "name": "transferAmount",
      "outputs": [
        {
          "internalType": "uint256",
          "name": "",
          "type": "uint256"
        }
      ],
      "stateMutability": "view",
      "type": "function"
    },
    {
      "inputs": [],
      "name": "transferFrequency",
      "outputs": [
        {
          "internalType": "uint256",
          "name": "",
          "type": "uint256"
        }
      ],
      "stateMutability": "view",
      "type": "function"
    },
    {
      "inputs": [],
      "name": "willActivateWaitingPeriod",
      "outputs": [
        {
          "internalType": "uint256",
          "name": "",
          "type": "uint256"
        }
      ],
      "stateMutability": "view",
      "type": "function"
    }
  ],
  "bytecode": "0x6080604052604051620009e5380380620009e5833981810160405281019061002791906101b0565b8234101561006a576040517f08c379a000000000000000000000000000000000000000000000000000000000815260040161006190610274565b60405180910390fd5b336000806101000a81548173ffffffffffffffffffffffffffffffffffffffff021916908373ffffffffffffffffffffffffffffffffffffffff16021790555083600160006101000a81548173ffffffffffffffffffffffffffffffffffffffff021916908373ffffffffffffffffffffffffffffffffffffffff160217905550826002819055508160038190555080600481905550426005819055504260068190555050505050610294565b600080fd5b600073ffffffffffffffffffffffffffffffffffffffff82169050919050565b60006101478261011c565b9050919050565b6101578161013c565b811461016257600080fd5b50565b6000815190506101748161014e565b92915050565b6000819050919050565b61018d8161017a565b811461019857600080fd5b50565b6000815190506101aa81610184565b92915050565b600080600080608085870312156101ca576101c9610117565b5b60006101d887828801610165565b94505060206101e98782880161019b565b93505060406101fa8782880161019b565b925050606061020b8782880161019b565b91505092959194509250565b600082825260208201905092915050565b7f4e6f7420656e6f7567682045544820746f2066756e64207468652077696c6c00600082015250565b600061025e601f83610217565b915061026982610228565b602082019050919050565b6000602082019050818103600083015261028d81610251565b9050919050565b61074180620002a46000396000f3fe608060405234801561001057600080fd5b506004361061009e5760003560e01c80635c36b186116100665780635c36b1861461012557806374324c781461012f5780638da5cb5b1461014d57806391f2ebb81461016b578063cf09e0d0146101895761009e565b806312065fe0146100a35780632760c57e146100c15780635038c31d146100df578063504d27fd146100fd5780635a1700131461011b575b600080fd5b6100ab6101a7565b6040516100b891906104b3565b60405180910390f35b6100c96101af565b6040516100d691906104b3565b60405180910390f35b6100e76101b5565b6040516100f491906104b3565b60405180910390f35b6101056101bb565b60405161011291906104b3565b60405180910390f35b6101236101c1565b005b61012d61033f565b005b610137610444565b60405161014491906104b3565b60405180910390f35b61015561044a565b604051610162919061050f565b60405180910390f35b61017361046e565b604051610180919061050f565b60405180910390f35b610191610494565b60405161019e91906104b3565b60405180910390f35b600047905090565b60055481565b60035481565b60025481565b6004546005546101d19190610559565b4211610212576040517f08c379a0000000000000000000000000000000000000000000000000000000008152600401610209906105ea565b60405180910390fd5b600254471015610257576040517f08c379a000000000000000000000000000000000000000000000000000000000815260040161024e90610656565b60405180910390fd5b600160009054906101000a900473ffffffffffffffffffffffffffffffffffffffff1673ffffffffffffffffffffffffffffffffffffffff166108fc6002549081150290604051600060405180830381858888f193505050501580156102c1573d6000803e3d6000fd5b5042600581905550600160009054906101000a900473ffffffffffffffffffffffffffffffffffffffff1673ffffffffffffffffffffffffffffffffffffffff167f219e38014d0e72b05ead8a8d0258ebea4be20d0c2c1de6c08974a08a6c917f6b60025442604051610335929190610676565b60405180910390a2565b60008054906101000a900473ffffffffffffffffffffffffffffffffffffffff1673ffffffffffffffffffffffffffffffffffffffff163373ffffffffffffffffffffffffffffffffffffffff16146103cd576040517f08c379a00000000000000000000000000000000000000000000000000000000081526004016103c4906106eb565b60405180910390fd5b4260058190555060008054906101000a900473ffffffffffffffffffffffffffffffffffffffff1673ffffffffffffffffffffffffffffffffffffffff167fd5fd11568fef84379772ca0ede26f57178e76ab3f922db124b3ef166646a1b584260405161043a91906104b3565b60405180910390a2565b60045481565b60008054906101000a900473ffffffffffffffffffffffffffffffffffffffff1681565b600160009054906101000a900473ffffffffffffffffffffffffffffffffffffffff1681565b60065481565b6000819050919050565b6104ad8161049a565b82525050565b60006020820190506104c860008301846104a4565b92915050565b600073ffffffffffffffffffffffffffffffffffffffff82169050919050565b60006104f9826104ce565b9050919050565b610509816104ee565b82525050565b60006020820190506105246000830184610500565b92915050565b7f4e487b7100000000000000000000000000000000000000000000000000000000600052601160045260246000fd5b60006105648261049a565b915061056f8361049a565b92508282019050808211156105875761058661052a565b5b92915050565b600082825260208201905092915050565b7f57696c6c206973207374696c6c20616374697665000000000000000000000000600082015250565b60006105d460148361058d565b91506105df8261059e565b602082019050919050565b60006020820190508181036000830152610603816105c7565b9050919050565b7f4e6f7420656e6f7567682062616c616e63650000000000000000000000000000600082015250565b600061064060128361058d565b915061064b8261060a565b602082019050919050565b6000602082019050818103600083015261066f81610633565b9050919050565b600060408201905061068b60008301856104a4565b61069860208301846104a4565b9392505050565b7f4f6e6c7920746865206f776e65722063616e2073656e6420612070696e670000600082015250565b60006106d5601e8361058d565b91506106e08261069f565b602082019050919050565b60006020820190508181036000830152610704816106c8565b905091905056fea2646970667358221220bb7accb21bed50962e9b9bd57b71ba454988f64939ab212f474ae5d5bedc734064736f6c63430008140033",
  "linkReferences": {},
  "deployedLinkReferences": {}
}