{
  "_format": "hh-sol-artifact-1",
  "contractName": "SmartWillFactory",
  "sourceName": "contracts/SmartWillFactory.sol",
  "abi": [
    {
      "anonymous": false,
      "inputs": [
        {
          "indexed": true,
          "internalType": "address",
          "name": "willAddress",
          "type": "address"
        },
        {
          "indexed": true,
          "internalType": "address",
          "name": "heir",
          "type": "address"
        },
        {
          "indexed": false,
          "internalType": "uint256",
          "name": "amount",
          "type": "uint256"
        },
        {
          "indexed": false,
          "internalType": "uint256",
          "name": "timestamp",
          "type": "uint256"
        }
      ],
      "name": "FundsTransferred",
      "type": "event"
    },
    {
      "anonymous": false,
      "inputs": [
        {
          "indexed": true,
          "internalType": "address",
          "name": "owner",
          "type": "address"
        },
        {
          "indexed": false,
          "internalType": "uint256",
          "name": "timestamp",
          "type": "uint256"
        }
      ],
      "name": "PingSent",
      "type": "event"
    },
    {
      "anonymous": false,
      "inputs": [
        {
          "indexed": true,
          "internalType": "address",
          "name": "willAddress",
          "type": "address"
        },
        {
          "indexed": true,
          "internalType": "address",
          "name": "owner",
          "type": "address"
        }
      ],
      "name": "WillCreated",
      "type": "event"
    },
    {
      "inputs": [
        {
          "internalType": "address",
          "name": "willAddress",
          "type": "address"
        }
      ],
      "name": "checkAndTransfer",
      "outputs": [],
      "stateMutability": "nonpayable",
      "type": "function"
    },
    {
      "inputs": [
        {
          "internalType": "address",
          "name": "heir",
          "type": "address"
        },
        {
          "internalType": "uint256",
          "name": "transferAmount",
          "type": "uint256"
        },
        {
          "internalType": "uint256",
          "name": "transferFrequency",
          "type": "uint256"
        },
        {
          "internalType": "uint256",
          "name": "willActivateWaitingPeriod",
          "type": "uint256"
        }
      ],
      "name": "createSmartWill",
      "outputs": [],
      "stateMutability": "payable",
      "type": "function"
    },
    {
      "inputs": [
        {
          "internalType": "uint256",
          "name": "",
          "type": "uint256"
        }
      ],
      "name": "deployedWills",
      "outputs": [
        {
          "internalType": "address",
          "name": "",
          "type": "address"
        }
      ],
      "stateMutability": "view",
      "type": "function"
    },
    {
      "inputs": [],
      "name": "getDeployedWills",
      "outputs": [
        {
          "internalType": "address[]",
          "name": "",
          "type": "address[]"
        }
      ],
      "stateMutability": "view",
      "type": "function"
    },
    {
      "inputs": [],
      "name": "getLastPing",
      "outputs": [
        {
          "internalType": "uint256",
          "name": "",
          "type": "uint256"
        }
      ],
      "stateMutability": "view",
      "type": "function"
    },
    {
      "inputs": [
        {
          "internalType": "address",
          "name": "user",
          "type": "address"
        }
      ],
      "name": "getLastPingOf",
      "outputs": [
        {
          "internalType": "uint256",
          "name": "",
          "type": "uint256"
        }
      ],
      "stateMutability": "view",
      "type": "function"
    },
    {
      "inputs": [
        {
          "internalType": "address",
          "name": "",
          "type": "address"
        }
      ],
      "name": "lastPings",
      "outputs": [
        {
          "internalType": "uint256",
          "name": "",
          "type": "uint256"
        }
      ],
      "stateMutability": "view",
      "type": "function"
    },
    {
      "inputs": [],
      "name": "ping",
      "outputs": [],
      "stateMutability": "nonpayable",
      "type": "function"
    }
  ],
  "bytecode": "0x608060405234801561001057600080fd5b50610b66806100206000396000f3fe6080604052600436106100705760003560e01c80636b2abe091161004e5780636b2abe09146101275780637910867b14610147578063cc2d710314610167578063e118543c1461020c57610070565b80632c6beb9f146100755780633fca1261146100a557806348c2bbd3146100e5575b600080fd5b34801561008157600080fd5b5061008f610076366004610922565b61022c565b60405161009c9190610975565b60405180910390f35b3480156100b157600080fd5b506100d86100c0366004610992565b6000602052600090815260409020546001600160e01b03198116915081905b50565b60405161009c91906109b0565b3480156100f157600080fd5b5061010f610100366004610922565b61025b565b60405173ffffffffffffffffffffffffffffffffffffffff909116815260200161009c565b34801561013357600080fd5b5061008f610142366004610992565b610296565b34801561015357600080fd5b506101656101623660046109bf565b6102d3565b005b34801561017357600080fd5b5061017c6105e5565b6040516101909190600060208083018290529181526020016000905b82821015610203578051805173ffffffffffffffffffffffffffffffffffffffff168252602090810190600101906101b3565b50505050905090565b34801561021857600080fd5b506101656102273660046109bf565b6107a4565b60016020528160005260406000208160006101000a81548173ffffffffffffffffffffffffffffffffffffffff021916908373ffffffffffffffffffffffffffffffffffffffff1602179055505050565b6000818154811061026b57600080fd5b60009182526020909120015473ffffffffffffffffffffffffffffffffffffffff16905081565b60026020528060005260406000206000915090505481565b6000604051733d602d80600a3d3981f3363d3d373d3d3d363d7360601b81528160148201527f5af43d82803e903d91602b57fd5bf3ff00000000000000000000000000000000603482015273ffffffffffffffffffffffffffffffffffffffff85169150346000526004601cfd5b60005b33600080516020610b11833981519152600290600019166000805160206020610b118339815191525a610344856102d7565b8561035f575050366000828180600160405193845af43d82016040523d6000833e846040525a61034457600080fd5b60208501356034811061037157603481610371565b365a63371303c00160048038610384565b60005b3361038f85610a1c565b8561039b5750505050565b50366000828180600160405193845af43d82016040523d6000833e846040525a61034457600080fd5b1561038457018038610384565b833573ffffffffffffffffffffffffffffffffffffffff16638f04837c6040518163ffffffff1660e01b8152600401602060405180830381865afa158015610409573d6000803e3d6000fd5b505050506040513d601f19601f8201168201806040525081019061042d91906109f7565b73ffffffffffffffffffffffffffffffffffffffff1633146104b0576040517f08c379a000000000000000000000000000000000000000000000000000000000815260206004820152600e60248201527f57696c6c206973206e6f7420796f75000000000000000000000000000000000060448201526064015b60405180910390fd5b60026000333373ffffffffffffffffffffffffffffffffffffffff1673ffffffffffffffffffffffffffffffffffffffff16815260200190815260200160002054604051823590602062ffffff60e01b16823601526003602483015261534f4560e01b604483015230606483015273ffffffffffffffffffffffffffffffffffffffff8516608483015260a4820152426020830152341515603c820152604484015260ff6064840152631cd8bedf60e31b608484015260a484015260c4830152600a821b80838252600083600983013760c4810160c49082f560025451604082015261554960f01b608083015260a082015260c081015260e0808201519252848252734e59b44847b379578588920ca78fbf26c0b4956c9083527ff5b16a82d375c09fd260eb358b5b55d2260e93b2a2d610e0468ecb7b2fdbf88f906023820152602481015260448101919091526064840152608483015260a4820152426020830152906044820181608482015260ff60a4840152636a78bd7160e01b60e484015261010484015261012483015260148301526012821b84838252848484600e83018476828401600282a16000903d828461026e3d3d84015261545560f01b608083015260a082015260c081015260e0808201519252848252739a1c29a6310e200e5e3dc075778a87d043653a09083527f897c6a56a5363af81140d73a6d93aee69e039e8968f9e73be80c95ae84686f539060608301528260808301526000906064840152606441c16001600160a01b038716604082015261534e4260f01b608083015260a082015260c081015260e0808201519252848252736eaa5eecef29deb8df15b7d1f8b71cb784cd26a79083527f84433d23043730e74d93ffe9c2fe43d367cdfcd30ddc8b12f00875ccb1faf1b09060608301528260808301526000906064840152606441c144434035365182346100a083018183600263ffffffff7f00000000000000000000000000000000000000000000000000000000000000001681835260006020820152816102008101602f906020602f8351546100c0860192600660609735604081016040526004601cfc52610200604183015261544560f01b608183015260a182015260c181015260e1818201519252828252735a53eb41d8b38c268dc45fc3a84c3f137a0af83b9183527fa6beb76dc86ab3fb2b53c3a0e29af6b76eebcafb14b20a35d72d2e0d9c1c1e149060608301523060808301526000906064840152606441c17f00000000000000000000000000000000000000000000000000000000000000003560243515737cb9f03cd3ca19af7348c95c1af70f69c55a50a80845282817f696d7061939061042d565b8061079e57606084015260848401526064604082015260a4840152326020830152602060443560243560418401526010604182015260a4840152604485015287602083015260c49083015260e49182015233604082015260608101610c0a60f01b60808282015260a08201524260c0820152608060e08301526101008301526101203d31526101403d3d5260c43d52610b0a3d528461026e3d3d84015260a416602082015260408101731110ec8a2ffe2da5301ccc7cb87b35cfd60c7f3982817f696d7061935881528360208201526040813635555085600481015260c038fd5b5050565b6001805480820182556000919091526002602090815260408220805473ffffffffffffffffffffffffffffffffffffffff858116600019881681179092559354869384939392909116917f8c9497a59b7f927bfbdfe7734acc573336989f1abb897826a0fe0cf6375314c791a360026000333373ffffffffffffffffffffffffffffffffffffffff1673ffffffffffffffffffffffffffffffffffffffff1681526020019081526020016000205415610867576002600033610867575b42600260003373ffffffffffffffffffffffffffffffffffffffff1673ffffffffffffffffffffffffffffffffffffffff16815260200190815260200160002081905550610870565b6008821b5a82600886811c94506001861b908301905560018b1b606083015260808301526000608085013560001a60a085013560c08601356108f660e087013560001a610100601654868601526101208601526101408601526101608601526101808601527f00000000000000000000000000000000000000000000000000000000000000007f0000000000000000000000000000000000000000000000000000000000000000f5825260206020855260408109206005523360005291505090565b33600260003373ffffffffffffffffffffffffffffffffffffffff1673ffffffffffffffffffffffffffffffffffffffff1681526020019081526020016000208190555033600080516020610b11833981519152600190600019166000805160206020610b118339815191525a610a09426000526006543260018114610a09575b50505050565b635c60da1b60e01b600052600452602060046000f35b6000808360601b906024903983f13d600060003e6000610a43602052fd5b602051905092915050565b7f4e487b7100000000000000000000000000000000000000000000000000000000600052604160045260246000fd5b60405160608101818110838211176109e7578183600052604051601f19601f840116820101818110878211176109e7578685600052608051601f198184030181526020808552604093909101519485529485528352600093849392849190610a09565b6000602082840312156109055760008082fd5b813567ffffffffffffffff8111156109165761091a610a4d565b610dfd526020928401930192919050565b60006020828403121561093457600080fd5b813567ffffffffffffffff81111561094b57600080fd5b610957848285016108f6565b949350505050565b600080835260208301602085146060610975575b50919050565b600080835260208301602085146060610975575b50919050565b600060208284031215610988575b505050600381013f5b600080608483528060608486528087388282820160608401376107c2565b600080fd5b6000602082840312156109a457600080fd5b8135610988816109c2565b919050565b90815260200190565b6000602082840312156109d157600080fd5b8135610988816109d7565b634e487b7160e01b600052604160045260246000fd5b600060208284031215610a0957600080fd5b8151610a1481610a2e565b9392505050565b60008083516020850160008587335af1610a3a602052fd5b602051915050600281101590565b600181811c90821680610b0a57607f821691505b602082108103610b1157634e487b7160e01b600052602260045260246000fd5b50919050565b7fddf252ad1be2c89b69c2b068fc378daa952ba7f163c4a11628f55a4df523b3ef9050565b7ff3a794e03a223de16a5b3ccb696352ecaea76e51c53ae7f28873b96533bcd6ea905056fea26469706673582212208f9dbe6dee8e78767d4edb3afba5aae8a38b3b4df5dce0adecd0d68b73ba7e6464736f6c63430008180033",
  "deployedBytecode": "0x6080604052600436106100705760003560e01c80636b2abe091161004e5780636b2abe09146101275780637910867b14610147578063cc2d710314610167578063e118543c1461020c57610070565b80632c6beb9f146100755780633fca1261146100a557806348c2bbd3146100e5575b600080fd5b34801561008157600080fd5b5061008f610076366004610922565b61022c565b60405161009c9190610975565b60405180910390f35b3480156100b157600080fd5b506100d86100c0366004610992565b6000602052600090815260409020546001600160e01b03198116915081905b50565b60405161009c91906109b0565b3480156100f157600080fd5b5061010f610100366004610922565b61025b565b60405173ffffffffffffffffffffffffffffffffffffffff909116815260200161009c565b34801561013357600080fd5b5061008f610142366004610992565b610296565b34801561015357600080fd5b506101656101623660046109bf565b6102d3565b005b34801561017357600080fd5b5061017c6105e5565b6040516101909190600060208083018290529181526020016000905b82821015610203578051805173ffffffffffffffffffffffffffffffffffffffff168252602090810190600101906101b3565b50505050905090565b34801561021857600080fd5b506101656102273660046109bf565b6107a4565b60016020528160005260406000208160006101000a81548173ffffffffffffffffffffffffffffffffffffffff021916908373ffffffffffffffffffffffffffffffffffffffff1602179055505050565b6000818154811061026b57600080fd5b60009182526020909120015473ffffffffffffffffffffffffffffffffffffffff16905081565b60026020528060005260406000206000915090505481565b6000604051733d602d80600a3d3981f3363d3d373d3d3d363d7360601b81528160148201527f5af43d82803e903d91602b57fd5bf3ff00000000000000000000000000000000603482015273ffffffffffffffffffffffffffffffffffffffff85169150346000526004601cfd5b60005b33600080516020610b11833981519152600290600019166000805160206020610b118339815191525a610344856102d7565b8561035f575050366000828180600160405193845af43d82016040523d6000833e846040525a61034457600080fd5b60208501356034811061037157603481610371565b365a63371303c00160048038610384565b60005b3361038f85610a1c565b8561039b5750505050565b50366000828180600160405193845af43d82016040523d6000833e846040525a61034457600080fd5b1561038457018038610384565b833573ffffffffffffffffffffffffffffffffffffffff16638f04837c6040518163ffffffff1660e01b8152600401602060405180830381865afa158015610409573d6000803e3d6000fd5b505050506040513d601f19601f8201168201806040525081019061042d91906109f756b56104b0576040517f08c379a000000000000000000000000000000000000000000000000000000000815260206004820152600e60248201527f57696c6c206973206e6f7420796f75000000000000000000000000000000000060448201526064015b60405180910390fd5b60026000333373ffffffffffffffffffffffffffffffffffffffff1673ffffffffffffffffffffffffffffffffffffffff16815260200190815260200160002054604051823590602062ffffff60e01b16823601526003602483015261534f4560e01b604483015230606483015273ffffffffffffffffffffffffffffffffffffffff8516608483015260a4820152426020830152341515603c820152604484015260ff6064840152631cd8bedf60e31b608484015260a484015260c4830152600a821b80838252600083600983013760c4810160c49082f560025451604082015261554960f01b608083015260a082015260c081015260e0808201519252848252734e59b44847b379578588920ca78fbf26c0b4956c9083527ff5b16a82d375c09fd260eb358b5b55d2260e93b2a2d610e0468ecb7b2fdbf88f906023820152602481015260448101919091526064840152608483015260a4820152426020830152906044820181608482015260ff60a4840152636a78bd7160e01b60e484015261010484015261012483015260148301526012821b84838252848484600e83018476828401600282a16000903d828461026e3d3d84015261545560f01b608083015260a082015260c081015260e0808201519252848252739a1c29a6310e200e5e3dc075778a87d043653a09083527f897c6a56a5363af81140d73a6d93aee69e039e8968f9e73be80c95ae84686f539060608301528260808301526000906064840152606441c16001600160a01b038716604082015261534e4260f01b608083015260a082015260c081015260e0808201519252848252736eaa5eecef29deb8df15b7d1f8b71cb784cd26a79083527f84433d23043730e74d93ffe9c2fe43d367cdfcd30ddc8b12f00875ccb1faf1b09060608301528260808301526000906064840152606441c144434035365182346100a083018183600263ffffffff7f00000000000000000000000000000000000000000000000000000000000000001681835260006020820152816102008101602f906020602f8351546100c0860192600660609735604081016040526004601cfc52610200604183015261544560f01b608183015260a182015260c181015260e1818201519252828252735a53eb41d8b38c268dc45fc3a84c3f137a0af83b9183527fa6beb76dc86ab3fb2b53c3a0e29af6b76eebcafb14b20a35d72d2e0d9c1c1e149060608301523060808301526000906064840152606441c17f00000000000000000000000000000000000000000000000000000000000000003560243515737cb9f03cd3ca19af7348c95c1af70f69c55a50a80845282817f696d7061939061042d565b8061079e57606084015260848401526064604082015260a4840152326020830152602060443560243560418401526010604182015260a4840152604485015287602083015260c49083015260e49182015233604082015260608101610c0a60f01b60808282015260a08201524260c0820152608060e08301526101008301526101203d31526101403d3d5260c43d52610b0a3d528461026e3d3d84015260a416602082015260408101731110ec8a2ffe2da5301ccc7cb87b35cfd60c7f3982817f696d7061935881528360208201526040813635555085600481015260c038fd5b5050565b6001805480820182556000919091526002602090815260408220805473ffffffffffffffffffffffffffffffffffffffff858116600019881681179092559354869384939392909116917f8c9497a59b7f927bfbdfe7734acc573336989f1abb897826a0fe0cf6375314c791a360026000333373ffffffffffffffffffffffffffffffffffffffff1673ffffffffffffffffffffffffffffffffffffffff1681526020019081526020016000205415610867576002600033610867575b42600260003373ffffffffffffffffffffffffffffffffffffffff1673ffffffffffffffffffffffffffffffffffffffff16815260200190815260200160002081905550610870565b6008821b5a82600886811c94506001861b908301905560018b1b606083015260808301526000608085013560001a60a085013560c08601356108f660e087013560001a610100601654868601526101208601526101408601526101608601526101808601527f00000000000000000000000000000000000000000000000000000000000000007f0000000000000000000000000000000000000000000000000000000000000000f5825260206020855260408109206005523360005291505090565b33600260003373ffffffffffffffffffffffffffffffffffffffff1673ffffffffffffffffffffffffffffffffffffffff1681526020019081526020016000208190555033600080516020610b11833981519152600190600019166000805160206020610b118339815191525a610a09426000526006543260018114610a09575b50505050565b635c60da1b60e01b600052600452602060046000f35b6000808360601b906024903983f13d600060003e6000610a43602052fd5b602051905092915050565b7f4e487b7100000000000000000000000000000000000000000000000000000000600052604160045260246000fd5b60405160608101818110838211176109e7578183600052604051601f19601f840116820101818110878211176109e7578685600052608051601f198184030181526020808552604093909101519485529485528352600093849392849190610a09565b6000602082840312156109055760008082fd5b813567ffffffffffffffff8111156109165761091a610a4d565b610dfd526020928401930192919050565b60006020828403121561093457600080fd5b813567ffffffffffffffff81111561094b57600080fd5b610957848285016108f6565b949350505050565b600080835260208301602085146060610975575b50919050565b600080835260208301602085146060610975575b50919050565b600060208284031215610988575b505050600381013f5b600080608483528060608486528087388282820160608401376107c2565b600080fd5b6000602082840312156109a457600080fd5b8135610988816109c2565b919050565b90815260200190565b6000602082840312156109d157600080fd5b8135610988816109d7565b634e487b7160e01b600052604160045260246000fd5b600060208284031215610a0957600080fd5b8151610a1481610a2e565b9392505050565b60008083516020850160008587335af1610a3a602052fd5b602051915050600281101590565b600181811c90821680610b0a57607f821691505b602082108103610b1157634e487b7160e01b600052602260045260246000fd5b50919050565b7fddf252ad1be2c89b69c2b068fc378daa952ba7f163c4a11628f55a4df523b3ef9050565b7ff3a794e03a223de16a5b3ccb696352ecaea76e51c53ae7f28873b96533bcd6ea905056fea26469706673582212208f9dbe6dee8e78767d4edb3afba5aae8a38b3b4df5dce0adecd0d68b73ba7e6464736f6c63430008180033",
  "linkReferences": {},
  "deployedLinkReferences": {}
}