{
  "_format": "hh-sol-artifact-1",
  "contractName": "SmartWillFactory",
  "sourceName": "contracts/SmartWillFactory.sol",
  "abi": [
    {
      "anonymous": false,
      "inputs": [
        {
          "indexed": true,
          "internalType": "address",
          "name": "willAddress",
          "type": "address"
        },
        {
          "indexed": true,
          "internalType": "address",
          "name": "heir",
          "type": "address"
        },
        {
          "indexed": false,
          "internalType": "uint256",
          "name": "amount",
          "type": "uint256"
        },
        {
          "indexed": false,
          "internalType": "uint256",
          "name": "timestamp",
          "type": "uint256"
        }
      ],
      "name": "FundsTransferred",
      "type": "event"
    },
    {
      "anonymous": false,
      "inputs": [
        {
          "indexed": true,
          "internalType": "address",
          "name": "owner",
          "type": "address"
        },
        {
          "indexed": false,
          "internalType": "uint256",
          "name": "timestamp",
          "type": "uint256"
        }
      ],
      "name": "PingSent",
      "type": "event"
    },
    {
      "anonymous": false,
      "inputs": [
        {
          "indexed": true,
          "internalType": "address",
          "name": "willAddress",
          "type": "address"
        },
        {
          "indexed": true,
          "internalType": "address",
          "name": "owner",
          "type": "address"
        }
      ],
      "name": "WillCreated",
      "type": "event"
    },
    {
      "inputs": [
        {
          "internalType": "address",
          "name": "willAddress",
          "type": "address"
        }
      ],
      "name": "checkAndTransfer",
      "outputs": [],
      "stateMutability": "nonpayable",
      "type": "function"
    },
    {
      "inputs": [
        {
          "internalType": "address",
          "name": "heir",
          "type": "address"
        },
        {
          "internalType": "string",
          "name": "heirName",
          "type": "string"
        },
        {
          "internalType": "string",
          "name": "heirRole",
          "type": "string"
        },
        {
          "internalType": "uint256",
          "name": "transferAmount",
          "type": "uint256"
        },
        {
          "internalType": "uint256",
          "name": "transferFrequency",
          "type": "uint256"
        },
        {
          "internalType": "uint256",
          "name": "willActivateWaitingPeriod",
          "type": "uint256"
        },
        {
          "internalType": "uint256",
          "name": "limit",
          "type": "uint256"
        }
      ],
      "name": "createSmartWill",
      "outputs": [],
      "stateMutability": "payable",
      "type": "function"
    },
    {
      "inputs": [
        {
          "internalType": "uint256",
          "name": "",
          "type": "uint256"
        }
      ],
      "name": "deployedWills",
      "outputs": [
        {
          "internalType": "address",
          "name": "",
          "type": "address"
        }
      ],
      "stateMutability": "view",
      "type": "function"
    },
    {
      "inputs": [],
      "name": "getDeployedWills",
      "outputs": [
        {
          "internalType": "address[]",
          "name": "",
          "type": "address[]"
        }
      ],
      "stateMutability": "view",
      "type": "function"
    },
    {
      "inputs": [],
      "name": "getLastPing",
      "outputs": [
        {
          "internalType": "uint256",
          "name": "",
          "type": "uint256"
        }
      ],
      "stateMutability": "view",
      "type": "function"
    },
    {
      "inputs": [
        {
          "internalType": "address",
          "name": "user",
          "type": "address"
        }
      ],
      "name": "getLastPingOf",
      "outputs": [
        {
          "internalType": "uint256",
          "name": "",
          "type": "uint256"
        }
      ],
      "stateMutability": "view",
      "type": "function"
    },
    {
      "inputs": [],
      "name": "getMyWills",
      "outputs": [
        {
          "internalType": "address[]",
          "name": "",
          "type": "address[]"
        }
      ],
      "stateMutability": "view",
      "type": "function"
    },
    {
      "inputs": [
        {
          "internalType": "address",
          "name": "willAddress",
          "type": "address"
        }
      ],
      "name": "getWillOwner",
      "outputs": [
        {
          "internalType": "address",
          "name": "",
          "type": "address"
        }
      ],
      "stateMutability": "view",
      "type": "function"
    },
    {
      "inputs": [
        {
          "internalType": "address",
          "name": "owner",
          "type": "address"
        }
      ],
      "name": "getWillsOf",
      "outputs": [
        {
          "internalType": "address[]",
          "name": "",
          "type": "address[]"
        }
      ],
      "stateMutability": "view",
      "type": "function"
    },
    {
      "inputs": [
        {
          "internalType": "address",
          "name": "willAddress",
          "type": "address"
        },
        {
          "internalType": "address",
          "name": "user",
          "type": "address"
        }
      ],
      "name": "isWillOwner",
      "outputs": [
        {
          "internalType": "bool",
          "name": "",
          "type": "bool"
        }
      ],
      "stateMutability": "view",
      "type": "function"
    },
    {
      "inputs": [
        {
          "internalType": "address",
          "name": "",
          "type": "address"
        }
      ],
      "name": "lastPings",
      "outputs": [
        {
          "internalType": "uint256",
          "name": "",
          "type": "uint256"
        }
      ],
      "stateMutability": "view",
      "type": "function"
    },
    {
      "inputs": [
        {
          "internalType": "address",
          "name": "",
          "type": "address"
        },
        {
          "internalType": "uint256",
          "name": "",
          "type": "uint256"
        }
      ],
      "name": "ownerToWills",
      "outputs": [
        {
          "internalType": "address",
          "name": "",
          "type": "address"
        }
      ],
      "stateMutability": "view",
      "type": "function"
    },
    {
      "inputs": [],
      "name": "ping",
      "outputs": [],
      "stateMutability": "nonpayable",
      "type": "function"
    },
    {
      "inputs": [
        {
          "internalType": "address",
          "name": "",
          "type": "address"
        }
      ],
      "name": "willToOwner",
      "outputs": [
        {
          "internalType": "address",
          "name": "",
          "type": "address"
        }
      ],
      "stateMutability": "view",
      "type": "function"
    }
  ],
  "bytecode": "0x608060405234801561001057600080fd5b506131b9806100206000396000f3fe608060405260043610620000f25760003560e01c806364695cc6116200008b578063bf012cbc1162000061578063bf012cbc1462000337578063c4c474a7146200037b578063dedf67e814620003ab578063f3b95dc114620003ef57620000f2565b806364695cc6146200027f57806373377b4114620002c3578063a7f9e329146200030757620000f2565b806331c4f2da11620000cd57806331c4f2da14620001995780633f46f1ed14620001dd5780634ba0682e14620002215780635c36b186146200026557620000f2565b80630e190f6514620000f75780630fdb347e1462000125578063162e97691462000169575b600080fd5b3480156200010457600080fd5b506200012360048036038101906200011d9190620011c4565b6200040f565b005b3480156200013257600080fd5b506200015160048036038101906200014b9190620011f6565b620007aa565b6040516200016091906200125a565b60405180910390f35b3480156200017657600080fd5b506200018162000842565b60405162000190919062001345565b60405180910390f35b348015620001a657600080fd5b50620001c56004803603810190620001bf9190620011c4565b6200090f565b604051620001d4919062001384565b60405180910390f35b348015620001ea57600080fd5b50620002096004803603810190620002039190620013d2565b62000958565b60405162000218919062001415565b60405180910390f35b3480156200022e57600080fd5b506200024d6004803603810190620002479190620011c4565b62000998565b6040516200025c919062001384565b60405180910390f35b3480156200027257600080fd5b506200027d620009b0565b005b3480156200028c57600080fd5b50620002ab6004803603810190620002a59190620011c4565b62000a46565b604051620002ba919062001415565b60405180910390f35b348015620002d057600080fd5b50620002ef6004803603810190620002e99190620011c4565b62000a79565b604051620002fe919062001415565b60405180910390f35b3480156200031457600080fd5b506200031f62000c14565b6040516200032e919062001384565b60405180910390f35b3480156200034457600080fd5b506200036360048036038101906200035d9190620011c4565b62000c5b565b60405162000372919062001345565b60405180910390f35b3480156200038857600080fd5b506200039362000d9b565b604051620003a2919062001345565b60405180910390f35b348015620003b857600080fd5b50620003d76004803603810190620003d1919062001432565b62000e2b565b604051620003e6919062001415565b60405180910390f35b6200040d6004803603810190620004079190620015db565b62000e7a565b005b600081905060008173ffffffffffffffffffffffffffffffffffffffff16638da5cb5b6040518163ffffffff1660e01b8152600401602060405180830381865afa15801562000462573d6000803e3d6000fd5b505050506040513d601f19601f82011682018060405250810190620004889190620016e3565b905060008273ffffffffffffffffffffffffffffffffffffffff166374324c786040518163ffffffff1660e01b8152600401602060405180830381865afa158015620004d8573d6000803e3d6000fd5b505050506040513d601f19601f82011682018060405250810190620004fe91906200172c565b905080600160008473ffffffffffffffffffffffffffffffffffffffff1673ffffffffffffffffffffffffffffffffffffffff168152602001908152602001600020546200054d91906200178d565b421162000591576040517f08c379a0000000000000000000000000000000000000000000000000000000008152600401620005889062001829565b60405180910390fd5b60008373ffffffffffffffffffffffffffffffffffffffff166391f2ebb86040518163ffffffff1660e01b8152600401602060405180830381865afa158015620005df573d6000803e3d6000fd5b505050506040513d601f19601f82011682018060405250810190620006059190620016e3565b905060008473ffffffffffffffffffffffffffffffffffffffff1663504d27fd6040518163ffffffff1660e01b8152600401602060405180830381865afa15801562000655573d6000803e3d6000fd5b505050506040513d601f19601f820116820180604052508101906200067b91906200172c565b905060008573ffffffffffffffffffffffffffffffffffffffff16632bf683ef6040518163ffffffff1660e01b81526004016020604051808303816000875af1158015620006cd573d6000803e3d6000fd5b505050506040513d601f19601f82011682018060405250810190620006f391906200187c565b90508062000738576040517f08c379a00000000000000000000000000000000000000000000000000000000081526004016200072f90620018fe565b60405180910390fd5b8273ffffffffffffffffffffffffffffffffffffffff168773ffffffffffffffffffffffffffffffffffffffff167fbd8ba14b7834d50f4d38587359558952e7e638273e9c027fbfa7d41b364e982584426040516200079992919062001920565b60405180910390a350505050505050565b60008173ffffffffffffffffffffffffffffffffffffffff16600360008573ffffffffffffffffffffffffffffffffffffffff1673ffffffffffffffffffffffffffffffffffffffff16815260200190815260200160002060009054906101000a900473ffffffffffffffffffffffffffffffffffffffff1673ffffffffffffffffffffffffffffffffffffffff1614905092915050565b6060600260003373ffffffffffffffffffffffffffffffffffffffff1673ffffffffffffffffffffffffffffffffffffffff1681526020019081526020016000208054806020026020016040519081016040528092919081815260200182805480156200090557602002820191906000526020600020905b8160009054906101000a900473ffffffffffffffffffffffffffffffffffffffff1673ffffffffffffffffffffffffffffffffffffffff1681526020019060010190808311620008ba575b5050505050905090565b6000600160008373ffffffffffffffffffffffffffffffffffffffff1673ffffffffffffffffffffffffffffffffffffffff168152602001908152602001600020549050919050565b600081815481106200096957600080fd5b906000526020600020016000915054906101000a900473ffffffffffffffffffffffffffffffffffffffff1681565b60016020528060005260406000206000915090505481565b42600160003373ffffffffffffffffffffffffffffffffffffffff1673ffffffffffffffffffffffffffffffffffffffff168152602001908152602001600020819055503373ffffffffffffffffffffffffffffffffffffffff167fd5fd11568fef84379772ca0ede26f57178e76ab3f922db124b3ef166646a1b584260405162000a3c919062001384565b60405180910390a2565b60036020528060005260406000206000915054906101000a900473ffffffffffffffffffffffffffffffffffffffff1681565b600080600360008473ffffffffffffffffffffffffffffffffffffffff1673ffffffffffffffffffffffffffffffffffffffff16815260200190815260200160002060009054906101000a900473ffffffffffffffffffffffffffffffffffffffff1690508073ffffffffffffffffffffffffffffffffffffffff163373ffffffffffffffffffffffffffffffffffffffff160362000b1c578091505062000c0f565b600083905060008173ffffffffffffffffffffffffffffffffffffffff166391f2ebb86040518163ffffffff1660e01b8152600401602060405180830381865afa15801562000b6f573d6000803e3d6000fd5b505050506040513d601f19601f8201168201806040525081019062000b959190620016e3565b90508073ffffffffffffffffffffffffffffffffffffffff163373ffffffffffffffffffffffffffffffffffffffff161462000c08576040517f08c379a000000000000000000000000000000000000000000000000000000000815260040162000bff90620019c3565b60405180910390fd5b8293505050505b919050565b6000600160003373ffffffffffffffffffffffffffffffffffffffff1673ffffffffffffffffffffffffffffffffffffffff16815260200190815260200160002054905090565b60608173ffffffffffffffffffffffffffffffffffffffff163373ffffffffffffffffffffffffffffffffffffffff161462000cce576040517f08c379a000000000000000000000000000000000000000000000000000000000815260040162000cc59062001a35565b60405180910390fd5b600260008373ffffffffffffffffffffffffffffffffffffffff1673ffffffffffffffffffffffffffffffffffffffff16815260200190815260200160002080548060200260200160405190810160405280929190818152602001828054801562000d8f57602002820191906000526020600020905b8160009054906101000a900473ffffffffffffffffffffffffffffffffffffffff1673ffffffffffffffffffffffffffffffffffffffff168152602001906001019080831162000d44575b50505050509050919050565b6060600080548060200260200160405190810160405280929190818152602001828054801562000e2157602002820191906000526020600020905b8160009054906101000a900473ffffffffffffffffffffffffffffffffffffffff1673ffffffffffffffffffffffffffffffffffffffff168152602001906001019080831162000dd6575b5050505050905090565b6002602052816000526040600020818154811062000e4857600080fd5b906000526020600020016000915091509054906101000a900473ffffffffffffffffffffffffffffffffffffffff1681565b6000348888888888888860405162000e92906200113d565b62000ea4979695949392919062001acf565b6040518091039082f090508015801562000ec2573d6000803e3d6000fd5b50905060008190506000819080600181540180825580915050600190039060005260206000200160009091909190916101000a81548173ffffffffffffffffffffffffffffffffffffffff021916908373ffffffffffffffffffffffffffffffffffffffff160217905550600260003373ffffffffffffffffffffffffffffffffffffffff1673ffffffffffffffffffffffffffffffffffffffff168152602001908152602001600020819080600181540180825580915050600190039060005260206000200160009091909190916101000a81548173ffffffffffffffffffffffffffffffffffffffff021916908373ffffffffffffffffffffffffffffffffffffffff16021790555033600360008373ffffffffffffffffffffffffffffffffffffffff1673ffffffffffffffffffffffffffffffffffffffff16815260200190815260200160002060006101000a81548173ffffffffffffffffffffffffffffffffffffffff021916908373ffffffffffffffffffffffffffffffffffffffff1602179055506000600160003373ffffffffffffffffffffffffffffffffffffffff1673ffffffffffffffffffffffffffffffffffffffff1681526020019081526020016000205403620010d85742600160003373ffffffffffffffffffffffffffffffffffffffff1673ffffffffffffffffffffffffffffffffffffffff168152602001908152602001600020819055505b3373ffffffffffffffffffffffffffffffffffffffff168173ffffffffffffffffffffffffffffffffffffffff167f19b0cad815d24c07aaa916842d617a9e8aa5dc7c762b1997b756561aecba106c60405160405180910390a3505050505050505050565b6116298062001b5b83390190565b6000604051905090565b600080fd5b600080fd5b600073ffffffffffffffffffffffffffffffffffffffff82169050919050565b60006200118c826200115f565b9050919050565b6200119e816200117f565b8114620011aa57600080fd5b50565b600081359050620011be8162001193565b92915050565b600060208284031215620011dd57620011dc62001155565b5b6000620011ed84828501620011ad565b91505092915050565b6000806040838503121562001210576200120f62001155565b5b60006200122085828601620011ad565b92505060206200123385828601620011ad565b9150509250929050565b60008115159050919050565b62001254816200123d565b82525050565b600060208201905062001271600083018462001249565b92915050565b600081519050919050565b600082825260208201905092915050565b6000819050602082019050919050565b620012ae816200117f565b82525050565b6000620012c28383620012a3565b60208301905092915050565b6000602082019050919050565b6000620012e88262001277565b620012f4818562001282565b9350620013018362001293565b8060005b83811015620013385781516200131c8882620012b4565b97506200132983620012ce565b92505060018101905062001305565b5085935050505092915050565b60006020820190508181036000830152620013618184620012db565b905092915050565b6000819050919050565b6200137e8162001369565b82525050565b60006020820190506200139b600083018462001373565b92915050565b620013ac8162001369565b8114620013b857600080fd5b50565b600081359050620013cc81620013a1565b92915050565b600060208284031215620013eb57620013ea62001155565b5b6000620013fb84828501620013bb565b91505092915050565b6200140f816200117f565b82525050565b60006020820190506200142c600083018462001404565b92915050565b600080604083850312156200144c576200144b62001155565b5b60006200145c85828601620011ad565b92505060206200146f85828601620013bb565b9150509250929050565b600080fd5b600080fd5b6000601f19601f8301169050919050565b7f4e487b7100000000000000000000000000000000000000000000000000000000600052604160045260246000fd5b620014ce8262001483565b810181811067ffffffffffffffff82111715620014f057620014ef62001494565b5b80604052505050565b6000620015056200114b565b9050620015138282620014c3565b919050565b600067ffffffffffffffff82111562001536576200153562001494565b5b620015418262001483565b9050602081019050919050565b82818337600083830152505050565b6000620015746200156e8462001518565b620014f9565b9050828152602081018484840111156200159357620015926200147e565b5b620015a08482856200154e565b509392505050565b600082601f830112620015c057620015bf62001479565b5b8135620015d28482602086016200155d565b91505092915050565b600080600080600080600060e0888a031215620015fd57620015fc62001155565b5b60006200160d8a828b01620011ad565b975050602088013567ffffffffffffffff8111156200163157620016306200115a565b5b6200163f8a828b01620015a8565b965050604088013567ffffffffffffffff8111156200166357620016626200115a565b5b620016718a828b01620015a8565b9550506060620016848a828b01620013bb565b9450506080620016978a828b01620013bb565b93505060a0620016aa8a828b01620013bb565b92505060c0620016bd8a828b01620013bb565b91505092959891949750929550565b600081519050620016dd8162001193565b92915050565b600060208284031215620016fc57620016fb62001155565b5b60006200170c84828501620016cc565b91505092915050565b6000815190506200172681620013a1565b92915050565b60006020828403121562001745576200174462001155565b5b6000620017558482850162001715565b91505092915050565b7f4e487b7100000000000000000000000000000000000000000000000000000000600052601160045260246000fd5b60006200179a8262001369565b9150620017a78362001369565b9250828201905080821115620017c257620017c16200175e565b5b92915050565b600082825260208201905092915050565b7f57696c6c206973207374696c6c20616374697665000000000000000000000000600082015250565b600062001811601483620017c8565b91506200181e82620017d9565b602082019050919050565b60006020820190508181036000830152620018448162001802565b9050919050565b62001856816200123d565b81146200186257600080fd5b50565b60008151905062001876816200184b565b92915050565b60006020828403121562001895576200189462001155565b5b6000620018a58482850162001865565b91505092915050565b7f5472616e73666572206661696c65640000000000000000000000000000000000600082015250565b6000620018e6600f83620017c8565b9150620018f382620018ae565b602082019050919050565b600060208201905081810360008301526200191981620018d7565b9050919050565b600060408201905062001937600083018562001373565b62001946602083018462001373565b9392505050565b7f4f6e6c79206f776e6572206f7220686569722063616e20766965772077696c6c60008201527f206f776e65720000000000000000000000000000000000000000000000000000602082015250565b6000620019ab602683620017c8565b9150620019b8826200194d565b604082019050919050565b60006020820190508181036000830152620019de816200199c565b9050919050565b7f596f752063616e206f6e6c79207669657720796f7572206f776e2077696c6c73600082015250565b600062001a1d602083620017c8565b915062001a2a82620019e5565b602082019050919050565b6000602082019050818103600083015262001a508162001a0e565b9050919050565b600081519050919050565b60005b8381101562001a8257808201518184015260208101905062001a65565b60008484015250505050565b600062001a9b8262001a57565b62001aa78185620017c8565b935062001ab981856020860162001a62565b62001ac48162001483565b840191505092915050565b600060e08201905062001ae6600083018a62001404565b818103602083015262001afa818962001a8e565b9050818103604083015262001b10818862001a8e565b905062001b21606083018762001373565b62001b30608083018662001373565b62001b3f60a083018562001373565b62001b4e60c083018462001373565b9897505050505050505056fe608060405260405162001629380380620016298339818101604052810190620000299190620003cc565b803410156200006f576040517f08c379a000000000000000000000000000000000000000000000000000000000815260040162000066906200051e565b60405180910390fd5b83811015620000b5576040517f08c379a0000000000000000000000000000000000000000000000000000000008152600401620000ac90620005b6565b60405180910390fd5b326000806101000a81548173ffffffffffffffffffffffffffffffffffffffff021916908373ffffffffffffffffffffffffffffffffffffffff16021790555086600160006101000a81548173ffffffffffffffffffffffffffffffffffffffff021916908373ffffffffffffffffffffffffffffffffffffffff160217905550856002908162000147919062000819565b50846003908162000159919062000819565b508360048190555082600581905550816006819055508060088190555042600781905550600060098190555042600a819055505050505050505062000900565b6000604051905090565b600080fd5b600080fd5b600073ffffffffffffffffffffffffffffffffffffffff82169050919050565b6000620001da82620001ad565b9050919050565b620001ec81620001cd565b8114620001f857600080fd5b50565b6000815190506200020c81620001e1565b92915050565b600080fd5b600080fd5b6000601f19601f8301169050919050565b7f4e487b7100000000000000000000000000000000000000000000000000000000600052604160045260246000fd5b62000267826200021c565b810181811067ffffffffffffffff821117156200028957620002886200022d565b5b80604052505050565b60006200029e62000199565b9050620002ac82826200025c565b919050565b600067ffffffffffffffff821115620002cf57620002ce6200022d565b5b620002da826200021c565b9050602081019050919050565b60005b8381101562000307578082015181840152602081019050620002ea565b60008484015250505050565b60006200032a6200032484620002b1565b62000292565b90508281526020810184848401111562000349576200034862000217565b5b62000356848285620002e7565b509392505050565b600082601f83011262000376576200037562000212565b5b81516200038884826020860162000313565b91505092915050565b6000819050919050565b620003a68162000391565b8114620003b257600080fd5b50565b600081519050620003c6816200039b565b92915050565b600080600080600080600060e0888a031215620003ee57620003ed620001a3565b5b6000620003fe8a828b01620001fb565b975050602088015167ffffffffffffffff811115620004225762000421620001a8565b5b620004308a828b016200035e565b965050604088015167ffffffffffffffff811115620004545762000453620001a8565b5b620004628a828b016200035e565b9550506060620004758a828b01620003b5565b9450506080620004888a828b01620003b5565b93505060a06200049b8a828b01620003b5565b92505060c0620004ae8a828b01620003b5565b91505092959891949750929550565b600082825260208201905092915050565b7f4e6f7420656e6f7567682045544820746f2066756e64207468652077696c6c00600082015250565b600062000506601f83620004bd565b91506200051382620004ce565b602082019050919050565b600060208201905081810360008301526200053981620004f7565b9050919050565b7f4c696d6974206d7573742062652067726561746572207468616e206f7220657160008201527f75616c20746f207472616e7366657220616d6f756e7400000000000000000000602082015250565b60006200059e603683620004bd565b9150620005ab8262000540565b604082019050919050565b60006020820190508181036000830152620005d1816200058f565b9050919050565b600081519050919050565b7f4e487b7100000000000000000000000000000000000000000000000000000000600052602260045260246000fd5b600060028204905060018216806200062b57607f821691505b602082108103620006415762000640620005e3565b5b50919050565b60008190508160005260206000209050919050565b60006020601f8301049050919050565b600082821b905092915050565b600060088302620006ab7fffffffffffffffffffffffffffffffffffffffffffffffffffffffffffffffff826200066c565b620006b786836200066c565b95508019841693508086168417925050509392505050565b6000819050919050565b6000620006fa620006f4620006ee8462000391565b620006cf565b62000391565b9050919050565b6000819050919050565b6200071683620006d9565b6200072e620007258262000701565b84845462000679565b825550505050565b600090565b6200074562000736565b620007528184846200070b565b505050565b5b818110156200077a576200076e6000826200073b565b60018101905062000758565b5050565b601f821115620007c957620007938162000647565b6200079e846200065c565b81016020851015620007ae578190505b620007c6620007bd856200065c565b83018262000757565b50505b505050565b600082821c905092915050565b6000620007ee60001984600802620007ce565b1980831691505092915050565b6000620008098383620007db565b9150826002028217905092915050565b6200082482620005d8565b67ffffffffffffffff81111562000840576200083f6200022d565b5b6200084c825462000612565b620008598282856200077e565b600060209050601f8311600181146200089157600084156200087c578287015190505b620008888582620007fb565b865550620008f8565b601f198416620008a18662000647565b60005b82811015620008cb57848901518255600182019150602085019450602081019050620008a4565b86831015620008eb5784890151620008e7601f891682620007db565b8355505b6001600288020188555050505b505050505050565b610d1980620009106000396000f3fe608060405234801561001057600080fd5b50600436106101165760003560e01c8063839b32f6116100a2578063a4d66daf11610071578063a4d66daf1461028d578063c27e4691146102ab578063cf09e0d0146102c9578063d4a3e364146102e7578063dc7e66021461030557610116565b8063839b32f61461022957806388d47070146102335780638da5cb5b1461025157806391f2ebb81461026f57610116565b80635038c31d116100e95780635038c31d14610193578063504d27fd146101b15780635fd51b37146101cf57806371948b94146101ed57806374324c781461020b57610116565b806312065fe01461011b5780632bf683ef146101395780632ed9b850146101575780634bf0e86814610175575b600080fd5b610123610323565b604051610130919061089c565b60405180910390f35b61014161032b565b60405161014e91906108d2565b60405180910390f35b61015f61050f565b60405161016c919061097d565b60405180910390f35b61017d61059d565b60405161018a919061089c565b60405180910390f35b61019b6105a3565b6040516101a8919061089c565b60405180910390f35b6101b96105a9565b6040516101c6919061089c565b60405180910390f35b6101d76105af565b6040516101e4919061089c565b60405180910390f35b6101f56105b5565b604051610202919061089c565b60405180910390f35b610213610605565b604051610220919061089c565b60405180910390f35b61023161060b565b005b61023b610710565b604051610248919061097d565b60405180910390f35b61025961079e565b60405161026691906109e0565b60405180910390f35b6102776107c2565b60405161028491906109e0565b60405180910390f35b6102956107e8565b6040516102a2919061089c565b60405180910390f35b6102b36107ee565b6040516102c091906108d2565b60405180910390f35b6102d161083a565b6040516102de919061089c565b60405180910390f35b6102ef610840565b6040516102fc919061089c565b60405180910390f35b61030d61086a565b60405161031a91906108d2565b60405180910390f35b600047905090565b6000600454471015610372576040517f08c379a000000000000000000000000000000000000000000000000000000000815260040161036990610a47565b60405180910390fd5b600654600a546103829190610a96565b4210156103c4576040517f08c379a00000000000000000000000000000000000000000000000000000000081526004016103bb90610b3c565b60405180910390fd5b60006009541115610422576005546009546103df9190610a96565b421015610421576040517f08c379a000000000000000000000000000000000000000000000000000000000815260040161041890610bce565b60405180910390fd5b5b600160009054906101000a900473ffffffffffffffffffffffffffffffffffffffff1673ffffffffffffffffffffffffffffffffffffffff166108fc6004549081150290604051600060405180830381858888f1935050505015801561048c573d6000803e3d6000fd5b5042600981905550600160009054906101000a900473ffffffffffffffffffffffffffffffffffffffff1673ffffffffffffffffffffffffffffffffffffffff167f219e38014d0e72b05ead8a8d0258ebea4be20d0c2c1de6c08974a08a6c917f6b60045442604051610500929190610bee565b60405180910390a26001905090565b6003805461051c90610c46565b80601f016020809104026020016040519081016040528092919081815260200182805461054890610c46565b80156105955780601f1061056a57610100808354040283529160200191610595565b820191906000526020600020905b81548152906001019060200180831161057857829003601f168201915b505050505081565b60095481565b60055481565b60045481565b600a5481565b600080600654600a546105c89190610a96565b9050600080600954146105ea576005546009546105e59190610a96565b6105ed565b60005b90508082116105fc57806105fe565b815b9250505090565b60065481565b60008054906101000a900473ffffffffffffffffffffffffffffffffffffffff1673ffffffffffffffffffffffffffffffffffffffff163373ffffffffffffffffffffffffffffffffffffffff1614610699576040517f08c379a000000000000000000000000000000000000000000000000000000000815260040161069090610cc3565b60405180910390fd5b42600a8190555060008054906101000a900473ffffffffffffffffffffffffffffffffffffffff1673ffffffffffffffffffffffffffffffffffffffff167f15c118892bba9735c15cf92518e8921adce5f6b48b3abc56d18a40318a4d572942604051610706919061089c565b60405180910390a2565b6002805461071d90610c46565b80601f016020809104026020016040519081016040528092919081815260200182805461074990610c46565b80156107965780601f1061076b57610100808354040283529160200191610796565b820191906000526020600020905b81548152906001019060200180831161077957829003601f168201915b505050505081565b60008054906101000a900473ffffffffffffffffffffffffffffffffffffffff1681565b600160009054906101000a900473ffffffffffffffffffffffffffffffffffffffff1681565b60085481565b600080600654600a546108019190610a96565b4210159050600080600954148061082757506005546009546108239190610a96565b4210155b90508180156108335750805b9250505090565b60075481565b600080600954036108545760009050610867565b6005546009546108649190610a96565b90505b90565b6000600654600a5461087c9190610a96565b4210905090565b6000819050919050565b61089681610883565b82525050565b60006020820190506108b1600083018461088d565b92915050565b60008115159050919050565b6108cc816108b7565b82525050565b60006020820190506108e760008301846108c3565b92915050565b600081519050919050565b600082825260208201905092915050565b60005b8381101561092757808201518184015260208101905061090c565b60008484015250505050565b6000601f19601f8301169050919050565b600061094f826108ed565b61095981856108f8565b9350610969818560208601610909565b61097281610933565b840191505092915050565b600060208201905081810360008301526109978184610944565b905092915050565b600073ffffffffffffffffffffffffffffffffffffffff82169050919050565b60006109ca8261099f565b9050919050565b6109da816109bf565b82525050565b60006020820190506109f560008301846109d1565b92915050565b7f4e6f7420656e6f7567682062616c616e63650000000000000000000000000000600082015250565b6000610a316012836108f8565b9150610a3c826109fb565b602082019050919050565b60006020820190508181036000830152610a6081610a24565b9050919050565b7f4e487b7100000000000000000000000000000000000000000000000000000000600052601160045260246000fd5b6000610aa182610883565b9150610aac83610883565b9250828201905080821115610ac457610ac3610a67565b5b92915050565b7f4f776e6572206973207374696c6c206163746976652e2043616e6e6f7420747260008201527f616e73666572207965742e000000000000000000000000000000000000000000602082015250565b6000610b26602b836108f8565b9150610b3182610aca565b604082019050919050565b60006020820190508181036000830152610b5581610b19565b9050919050565b7f5472616e73666572206672657175656e6379206c696d6974206e6f742072656160008201527f6368656420796574000000000000000000000000000000000000000000000000602082015250565b6000610bb86028836108f8565b9150610bc382610b5c565b604082019050919050565b60006020820190508181036000830152610be781610bab565b9050919050565b6000604082019050610c03600083018561088d565b610c10602083018461088d565b9392505050565b7f4e487b7100000000000000000000000000000000000000000000000000000000600052602260045260246000fd5b60006002820490506001821680610c5e57607f821691505b602082108103610c7157610c70610c17565b5b50919050565b7f4f6e6c79206f776e65722063616e20636f6e6669726d20616374697669747900600082015250565b6000610cad601f836108f8565b9150610cb882610c77565b602082019050919050565b60006020820190508181036000830152610cdc81610ca0565b905091905056fea2646970667358221220704fd9d140fa563aa936c1d6d417f9a477dd881ff5a16954ca6a1903ca0dfff664736f6c63430008180033a2646970667358221220df9779fac14e1c7e49ac9bf3339db77e72cea6c195ea76dbf897ad600791a6c564736f6c63430008180033",
  "linkReferences": {},
  "deployedLinkReferences": {}
}