{
  "_format": "hh-sol-artifact-1",
  "contractName": "SmartWillFactory",
  "sourceName": "contracts/SmartWillFactory.sol",
  "abi": [
    {
      "anonymous": false,
      "inputs": [
        {
          "indexed": true,
          "internalType": "address",
          "name": "willAddress",
          "type": "address"
        },
        {
          "indexed": true,
          "internalType": "address",
          "name": "heir",
          "type": "address"
        },
        {
          "indexed": false,
          "internalType": "uint256",
          "name": "amount",
          "type": "uint256"
        },
        {
          "indexed": false,
          "internalType": "uint256",
          "name": "timestamp",
          "type": "uint256"
        }
      ],
      "name": "FundsTransferred",
      "type": "event"
    },
    {
      "anonymous": false,
      "inputs": [
        {
          "indexed": true,
          "internalType": "address",
          "name": "owner",
          "type": "address"
        },
        {
          "indexed": false,
          "internalType": "uint256",
          "name": "timestamp",
          "type": "uint256"
        }
      ],
      "name": "PingSent",
      "type": "event"
    },
    {
      "anonymous": false,
      "inputs": [
        {
          "indexed": true,
          "internalType": "address",
          "name": "willAddress",
          "type": "address"
        },
        {
          "indexed": true,
          "internalType": "address",
          "name": "owner",
          "type": "address"
        }
      ],
      "name": "WillCreated",
      "type": "event"
    },
    {
      "inputs": [
        {
          "internalType": "address",
          "name": "willAddress",
          "type": "address"
        }
      ],
      "name": "checkAndTransfer",
      "outputs": [],
      "stateMutability": "nonpayable",
      "type": "function"
    },
    {
      "inputs": [
        {
          "internalType": "address",
          "name": "heir",
          "type": "address"
        },
        {
          "internalType": "uint256",
          "name": "transferAmount",
          "type": "uint256"
        },
        {
          "internalType": "uint256",
          "name": "transferFrequency",
          "type": "uint256"
        },
        {
          "internalType": "uint256",
          "name": "willActivateWaitingPeriod",
          "type": "uint256"
        }
      ],
      "name": "createSmartWill",
      "outputs": [],
      "stateMutability": "payable",
      "type": "function"
    },
    {
      "inputs": [
        {
          "internalType": "uint256",
          "name": "",
          "type": "uint256"
        }
      ],
      "name": "deployedWills",
      "outputs": [
        {
          "internalType": "address",
          "name": "",
          "type": "address"
        }
      ],
      "stateMutability": "view",
      "type": "function"
    },
    {
      "inputs": [],
      "name": "getDeployedWills",
      "outputs": [
        {
          "internalType": "address[]",
          "name": "",
          "type": "address[]"
        }
      ],
      "stateMutability": "view",
      "type": "function"
    },
    {
      "inputs": [],
      "name": "getLastPing",
      "outputs": [
        {
          "internalType": "uint256",
          "name": "",
          "type": "uint256"
        }
      ],
      "stateMutability": "view",
      "type": "function"
    },
    {
      "inputs": [
        {
          "internalType": "address",
          "name": "user",
          "type": "address"
        }
      ],
      "name": "getLastPingOf",
      "outputs": [
        {
          "internalType": "uint256",
          "name": "",
          "type": "uint256"
        }
      ],
      "stateMutability": "view",
      "type": "function"
    },
    {
      "inputs": [
        {
          "internalType": "address",
          "name": "",
          "type": "address"
        }
      ],
      "name": "lastPings",
      "outputs": [
        {
          "internalType": "uint256",
          "name": "",
          "type": "uint256"
        }
      ],
      "stateMutability": "view",
      "type": "function"
    },
    {
      "inputs": [],
      "name": "ping",
      "outputs": [],
      "stateMutability": "nonpayable",
      "type": "function"
    }
  ],
  "bytecode": "0x608060405234801561001057600080fd5b5061169b806100206000396000f3fe608060405260043610620000865760003560e01c80635af4d8dc11620000555780635af4d8dc14620001855780635c36b18614620001a5578063a7f9e32914620001bf578063c4c474a714620001ef5762000086565b80630e190f65146200008b57806331c4f2da14620000b95780633f46f1ed14620000fd5780634ba0682e1462000141575b600080fd5b3480156200009857600080fd5b50620000b76004803603810190620000b19190620009dc565b6200021f565b005b348015620000c657600080fd5b50620000e56004803603810190620000df9190620009dc565b620005ba565b604051620000f4919062000a29565b60405180910390f35b3480156200010a57600080fd5b5062000129600480360381019062000123919062000a77565b62000603565b60405162000138919062000aba565b60405180910390f35b3480156200014e57600080fd5b506200016d6004803603810190620001679190620009dc565b62000643565b6040516200017c919062000a29565b60405180910390f35b620001a360048036038101906200019d919062000ad7565b6200065b565b005b348015620001b257600080fd5b50620001bd620007f7565b005b348015620001cc57600080fd5b50620001d76200088d565b604051620001e6919062000a29565b60405180910390f35b348015620001fc57600080fd5b5062000207620008d4565b60405162000216919062000c17565b60405180910390f35b600081905060008173ffffffffffffffffffffffffffffffffffffffff16638da5cb5b6040518163ffffffff1660e01b8152600401602060405180830381865afa15801562000272573d6000803e3d6000fd5b505050506040513d601f19601f8201168201806040525081019062000298919062000c52565b905060008273ffffffffffffffffffffffffffffffffffffffff166374324c786040518163ffffffff1660e01b8152600401602060405180830381865afa158015620002e8573d6000803e3d6000fd5b505050506040513d601f19601f820116820180604052508101906200030e919062000c9b565b905080600160008473ffffffffffffffffffffffffffffffffffffffff1673ffffffffffffffffffffffffffffffffffffffff168152602001908152602001600020546200035d919062000cfc565b4211620003a1576040517f08c379a0000000000000000000000000000000000000000000000000000000008152600401620003989062000d98565b60405180910390fd5b60008373ffffffffffffffffffffffffffffffffffffffff166391f2ebb86040518163ffffffff1660e01b8152600401602060405180830381865afa158015620003ef573d6000803e3d6000fd5b505050506040513d601f19601f8201168201806040525081019062000415919062000c52565b905060008473ffffffffffffffffffffffffffffffffffffffff1663504d27fd6040518163ffffffff1660e01b8152600401602060405180830381865afa15801562000465573d6000803e3d6000fd5b505050506040513d601f19601f820116820180604052508101906200048b919062000c9b565b905060008573ffffffffffffffffffffffffffffffffffffffff16632bf683ef6040518163ffffffff1660e01b81526004016020604051808303816000875af1158015620004dd573d6000803e3d6000fd5b505050506040513d601f19601f8201168201806040525081019062000503919062000df7565b90508062000548576040517f08c379a00000000000000000000000000000000000000000000000000000000081526004016200053f9062000e79565b60405180910390fd5b8273ffffffffffffffffffffffffffffffffffffffff168773ffffffffffffffffffffffffffffffffffffffff167fbd8ba14b7834d50f4d38587359558952e7e638273e9c027fbfa7d41b364e98258442604051620005a992919062000e9b565b60405180910390a350505050505050565b6000600160008373ffffffffffffffffffffffffffffffffffffffff1673ffffffffffffffffffffffffffffffffffffffff168152602001908152602001600020549050919050565b600081815481106200061457600080fd5b906000526020600020016000915054906101000a900473ffffffffffffffffffffffffffffffffffffffff1681565b60016020528060005260406000206000915090505481565b60003485858585604051620006709062000964565b6200067f949392919062000ec8565b6040518091039082f09050801580156200069d573d6000803e3d6000fd5b50905060008190506000819080600181540180825580915050600190039060005260206000200160009091909190916101000a81548173ffffffffffffffffffffffffffffffffffffffff021916908373ffffffffffffffffffffffffffffffffffffffff1602179055506000600160003373ffffffffffffffffffffffffffffffffffffffff1673ffffffffffffffffffffffffffffffffffffffff1681526020019081526020016000205403620007955742600160003373ffffffffffffffffffffffffffffffffffffffff1673ffffffffffffffffffffffffffffffffffffffff168152602001908152602001600020819055505b3373ffffffffffffffffffffffffffffffffffffffff168173ffffffffffffffffffffffffffffffffffffffff167f19b0cad815d24c07aaa916842d617a9e8aa5dc7c762b1997b756561aecba106c60405160405180910390a3505050505050565b42600160003373ffffffffffffffffffffffffffffffffffffffff1673ffffffffffffffffffffffffffffffffffffffff168152602001908152602001600020819055503373ffffffffffffffffffffffffffffffffffffffff167fd5fd11568fef84379772ca0ede26f57178e76ab3f922db124b3ef166646a1b584260405162000883919062000a29565b60405180910390a2565b6000600160003373ffffffffffffffffffffffffffffffffffffffff1673ffffffffffffffffffffffffffffffffffffffff16815260200190815260200160002054905090565b606060008054806020026020016040519081016040528092919081815260200182805480156200095a57602002820191906000526020600020905b8160009054906101000a900473ffffffffffffffffffffffffffffffffffffffff1673ffffffffffffffffffffffffffffffffffffffff16815260200190600101908083116200090f575b5050505050905090565b6107508062000f1683390190565b600080fd5b600073ffffffffffffffffffffffffffffffffffffffff82169050919050565b6000620009a48262000977565b9050919050565b620009b68162000997565b8114620009c257600080fd5b50565b600081359050620009d681620009ab565b92915050565b600060208284031215620009f557620009f462000972565b5b600062000a0584828501620009c5565b91505092915050565b6000819050919050565b62000a238162000a0e565b82525050565b600060208201905062000a40600083018462000a18565b92915050565b62000a518162000a0e565b811462000a5d57600080fd5b50565b60008135905062000a718162000a46565b92915050565b60006020828403121562000a905762000a8f62000972565b5b600062000aa08482850162000a60565b91505092915050565b62000ab48162000997565b82525050565b600060208201905062000ad1600083018462000aa9565b92915050565b6000806000806080858703121562000af45762000af362000972565b5b600062000b0487828801620009c5565b945050602062000b178782880162000a60565b935050604062000b2a8782880162000a60565b925050606062000b3d8782880162000a60565b91505092959194509250565b600081519050919050565b600082825260208201905092915050565b6000819050602082019050919050565b62000b808162000997565b82525050565b600062000b94838362000b75565b60208301905092915050565b6000602082019050919050565b600062000bba8262000b49565b62000bc6818562000b54565b935062000bd38362000b65565b8060005b8381101562000c0a57815162000bee888262000b86565b975062000bfb8362000ba0565b92505060018101905062000bd7565b5085935050505092915050565b6000602082019050818103600083015262000c33818462000bad565b905092915050565b60008151905062000c4c81620009ab565b92915050565b60006020828403121562000c6b5762000c6a62000972565b5b600062000c7b8482850162000c3b565b91505092915050565b60008151905062000c958162000a46565b92915050565b60006020828403121562000cb45762000cb362000972565b5b600062000cc48482850162000c84565b91505092915050565b7f4e487b7100000000000000000000000000000000000000000000000000000000600052601160045260246000fd5b600062000d098262000a0e565b915062000d168362000a0e565b925082820190508082111562000d315762000d3062000ccd565b5b92915050565b600082825260208201905092915050565b7f57696c6c206973207374696c6c20616374697665000000000000000000000000600082015250565b600062000d8060148362000d37565b915062000d8d8262000d48565b602082019050919050565b6000602082019050818103600083015262000db38162000d71565b9050919050565b60008115159050919050565b62000dd18162000dba565b811462000ddd57600080fd5b50565b60008151905062000df18162000dc6565b92915050565b60006020828403121562000e105762000e0f62000972565b5b600062000e208482850162000de0565b91505092915050565b7f5472616e73666572206661696c65640000000000000000000000000000000000600082015250565b600062000e61600f8362000d37565b915062000e6e8262000e29565b602082019050919050565b6000602082019050818103600083015262000e948162000e52565b9050919050565b600060408201905062000eb2600083018562000a18565b62000ec1602083018462000a18565b9392505050565b600060808201905062000edf600083018762000aa9565b62000eee602083018662000a18565b62000efd604083018562000a18565b62000f0c606083018462000a18565b9594505050505056fe6080604052604051610750380380610750833981810160405281019061002591906101a7565b82341015610068576040517f08c379a000000000000000000000000000000000000000000000000000000000815260040161005f9061026b565b60405180910390fd5b336000806101000a81548173ffffffffffffffffffffffffffffffffffffffff021916908373ffffffffffffffffffffffffffffffffffffffff16021790555083600160006101000a81548173ffffffffffffffffffffffffffffffffffffffff021916908373ffffffffffffffffffffffffffffffffffffffff160217905550826002819055508160038190555080600481905550426005819055505050505061028b565b600080fd5b600073ffffffffffffffffffffffffffffffffffffffff82169050919050565b600061013e82610113565b9050919050565b61014e81610133565b811461015957600080fd5b50565b60008151905061016b81610145565b92915050565b6000819050919050565b61018481610171565b811461018f57600080fd5b50565b6000815190506101a18161017b565b92915050565b600080600080608085870312156101c1576101c061010e565b5b60006101cf8782880161015c565b94505060206101e087828801610192565b93505060406101f187828801610192565b925050606061020287828801610192565b91505092959194509250565b600082825260208201905092915050565b7f4e6f7420656e6f7567682045544820746f2066756e64207468652077696c6c00600082015250565b6000610255601f8361020e565b91506102608261021f565b602082019050919050565b6000602082019050818103600083015261028481610248565b9050919050565b6104b68061029a6000396000f3fe608060405234801561001057600080fd5b50600436106100885760003560e01c806374324c781161005b57806374324c78146101055780638da5cb5b1461012357806391f2ebb814610141578063cf09e0d01461015f57610088565b806312065fe01461008d5780632bf683ef146100ab5780635038c31d146100c9578063504d27fd146100e7575b600080fd5b61009561017d565b6040516100a2919061032d565b60405180910390f35b6100b3610185565b6040516100c09190610363565b60405180910390f35b6100d16102b2565b6040516100de919061032d565b60405180910390f35b6100ef6102b8565b6040516100fc919061032d565b60405180910390f35b61010d6102be565b60405161011a919061032d565b60405180910390f35b61012b6102c4565b60405161013891906103bf565b60405180910390f35b6101496102e8565b60405161015691906103bf565b60405180910390f35b61016761030e565b604051610174919061032d565b60405180910390f35b600047905090565b60006002544710156101cc576040517f08c379a00000000000000000000000000000000000000000000000000000000081526004016101c390610437565b60405180910390fd5b600160009054906101000a900473ffffffffffffffffffffffffffffffffffffffff1673ffffffffffffffffffffffffffffffffffffffff166108fc6002549081150290604051600060405180830381858888f19350505050158015610236573d6000803e3d6000fd5b50600160009054906101000a900473ffffffffffffffffffffffffffffffffffffffff1673ffffffffffffffffffffffffffffffffffffffff167f219e38014d0e72b05ead8a8d0258ebea4be20d0c2c1de6c08974a08a6c917f6b600254426040516102a3929190610457565b60405180910390a26001905090565b60035481565b60025481565b60045481565b60008054906101000a900473ffffffffffffffffffffffffffffffffffffffff1681565b600160009054906101000a900473ffffffffffffffffffffffffffffffffffffffff1681565b60055481565b6000819050919050565b61032781610314565b82525050565b6000602082019050610342600083018461031e565b92915050565b60008115159050919050565b61035d81610348565b82525050565b60006020820190506103786000830184610354565b92915050565b600073ffffffffffffffffffffffffffffffffffffffff82169050919050565b60006103a98261037e565b9050919050565b6103b98161039e565b82525050565b60006020820190506103d460008301846103b0565b92915050565b600082825260208201905092915050565b7f4e6f7420656e6f7567682062616c616e63650000000000000000000000000000600082015250565b60006104216012836103da565b915061042c826103eb565b602082019050919050565b6000602082019050818103600083015261045081610414565b9050919050565b600060408201905061046c600083018561031e565b610479602083018461031e565b939250505056fea26469706673582212207cd8eff558705a5de33fb8cc355e4cae3734813f22274ca8255ade540c2dedb764736f6c63430008180033a26469706673582212203a253cbc6be6f4a7aa514e369fb8434757f36237b8f6082ff01ab844a763561064736f6c63430008180033",
  "linkReferences": {},
  "deployedLinkReferences": {}
}