{
  "_format": "hh-sol-artifact-1",
  "contractName": "SmartWill",
  "sourceName": "contracts/SmartWill.sol",
  "abi": [
    {
      "inputs": [
        {
          "internalType": "address",
          "name": "_heir",
          "type": "address"
        },
        {
          "internalType": "string",
          "name": "_heirName",
          "type": "string"
        },
        {
          "internalType": "string",
          "name": "_heirRole",
          "type": "string"
        },
        {
          "internalType": "uint256",
          "name": "_transferAmount",
          "type": "uint256"
        },
        {
          "internalType": "uint256",
          "name": "_transferFrequency",
          "type": "uint256"
        },
        {
          "internalType": "uint256",
          "name": "_willActivateWaitingPeriod",
          "type": "uint256"
        },
        {
          "internalType": "uint256",
          "name": "_limit",
          "type": "uint256"
        }
      ],
      "stateMutability": "payable",
      "type": "constructor"
    },
    {
      "anonymous": false,
      "inputs": [
        {
          "indexed": true,
          "internalType": "address",
          "name": "owner",
          "type": "address"
        },
        {
          "indexed": false,
          "internalType": "uint256",
          "name": "timestamp",
          "type": "uint256"
        }
      ],
      "name": "ActivityConfirmed",
      "type": "event"
    },
    {
      "anonymous": false,
      "inputs": [
        {
          "indexed": true,
          "internalType": "address",
          "name": "heir",
          "type": "address"
        },
        {
          "indexed": false,
          "internalType": "uint256",
          "name": "amount",
          "type": "uint256"
        },
        {
          "indexed": false,
          "internalType": "uint256",
          "name": "timestamp",
          "type": "uint256"
        }
      ],
      "name": "FundsTransferred",
      "type": "event"
    },
    {
      "inputs": [],
      "name": "canTransferNow",
      "outputs": [
        {
          "internalType": "bool",
          "name": "",
          "type": "bool"
        }
      ],
      "stateMutability": "view",
      "type": "function"
    },
    {
      "inputs": [],
      "name": "confirmActivity",
      "outputs": [],
      "stateMutability": "nonpayable",
      "type": "function"
    },
    {
      "inputs": [],
      "name": "createdAt",
      "outputs": [
        {
          "internalType": "uint256",
          "name": "",
          "type": "uint256"
        }
      ],
      "stateMutability": "view",
      "type": "function"
    },
    {
      "inputs": [],
      "name": "getBalance",
      "outputs": [
        {
          "internalType": "uint256",
          "name": "",
          "type": "uint256"
        }
      ],
      "stateMutability": "view",
      "type": "function"
    },
    {
      "inputs": [],
      "name": "getNextPossibleTransferTime",
      "outputs": [
        {
          "internalType": "uint256",
          "name": "",
          "type": "uint256"
        }
      ],
      "stateMutability": "view",
      "type": "function"
    },
    {
      "inputs": [],
      "name": "getNextTransferTime",
      "outputs": [
        {
          "internalType": "uint256",
          "name": "",
          "type": "uint256"
        }
      ],
      "stateMutability": "view",
      "type": "function"
    },
    {
      "inputs": [],
      "name": "heir",
      "outputs": [
        {
          "internalType": "address",
          "name": "",
          "type": "address"
        }
      ],
      "stateMutability": "view",
      "type": "function"
    },
    {
      "inputs": [],
      "name": "heirName",
      "outputs": [
        {
          "internalType": "string",
          "name": "",
          "type": "string"
        }
      ],
      "stateMutability": "view",
      "type": "function"
    },
    {
      "inputs": [],
      "name": "heirRole",
      "outputs": [
        {
          "internalType": "string",
          "name": "",
          "type": "string"
        }
      ],
      "stateMutability": "view",
      "type": "function"
    },
    {
      "inputs": [],
      "name": "isOwnerActive",
      "outputs": [
        {
          "internalType": "bool",
          "name": "",
          "type": "bool"
        }
      ],
      "stateMutability": "view",
      "type": "function"
    },
    {
      "inputs": [],
      "name": "lastActivity",
      "outputs": [
        {
          "internalType": "uint256",
          "name": "",
          "type": "uint256"
        }
      ],
      "stateMutability": "view",
      "type": "function"
    },
    {
      "inputs": [],
      "name": "lastTransferTime",
      "outputs": [
        {
          "internalType": "uint256",
          "name": "",
          "type": "uint256"
        }
      ],
      "stateMutability": "view",
      "type": "function"
    },
    {
      "inputs": [],
      "name": "limit",
      "outputs": [
        {
          "internalType": "uint256",
          "name": "",
          "type": "uint256"
        }
      ],
      "stateMutability": "view",
      "type": "function"
    },
    {
      "inputs": [],
      "name": "owner",
      "outputs": [
        {
          "internalType": "address",
          "name": "",
          "type": "address"
        }
      ],
      "stateMutability": "view",
      "type": "function"
    },
    {
      "inputs": [],
      "name": "transferAmount",
      "outputs": [
        {
          "internalType": "uint256",
          "name": "",
          "type": "uint256"
        }
      ],
      "stateMutability": "view",
      "type": "function"
    },
    {
      "inputs": [],
      "name": "transferFrequency",
      "outputs": [
        {
          "internalType": "uint256",
          "name": "",
          "type": "uint256"
        }
      ],
      "stateMutability": "view",
      "type": "function"
    },
    {
      "inputs": [],
      "name": "transferToHeir",
      "outputs": [
        {
          "internalType": "bool",
          "name": "",
          "type": "bool"
        }
      ],
      "stateMutability": "nonpayable",
      "type": "function"
    },
    {
      "inputs": [],
      "name": "willActivateWaitingPeriod",
      "outputs": [
        {
          "internalType": "uint256",
          "name": "",
          "type": "uint256"
        }
      ],
      "stateMutability": "view",
      "type": "function"
    }
  ],
  "bytecode": "0x608060405260405162001629380380620016298339818101604052810190620000299190620003cc565b803410156200006f576040517f08c379a000000000000000000000000000000000000000000000000000000000815260040162000066906200051e565b60405180910390fd5b83811015620000b5576040517f08c379a0000000000000000000000000000000000000000000000000000000008152600401620000ac90620005b6565b60405180910390fd5b326000806101000a81548173ffffffffffffffffffffffffffffffffffffffff021916908373ffffffffffffffffffffffffffffffffffffffff16021790555086600160006101000a81548173ffffffffffffffffffffffffffffffffffffffff021916908373ffffffffffffffffffffffffffffffffffffffff160217905550856002908162000147919062000819565b50846003908162000159919062000819565b508360048190555082600581905550816006819055508060088190555042600781905550600060098190555042600a819055505050505050505062000900565b6000604051905090565b600080fd5b600080fd5b600073ffffffffffffffffffffffffffffffffffffffff82169050919050565b6000620001da82620001ad565b9050919050565b620001ec81620001cd565b8114620001f857600080fd5b50565b6000815190506200020c81620001e1565b92915050565b600080fd5b600080fd5b6000601f19601f8301169050919050565b7f4e487b7100000000000000000000000000000000000000000000000000000000600052604160045260246000fd5b62000267826200021c565b810181811067ffffffffffffffff821117156200028957620002886200022d565b5b80604052505050565b60006200029e62000199565b9050620002ac82826200025c565b919050565b600067ffffffffffffffff821115620002cf57620002ce6200022d565b5b620002da826200021c565b9050602081019050919050565b60005b8381101562000307578082015181840152602081019050620002ea565b60008484015250505050565b60006200032a6200032484620002b1565b62000292565b90508281526020810184848401111562000349576200034862000217565b5b62000356848285620002e7565b509392505050565b600082601f83011262000376576200037562000212565b5b81516200038884826020860162000313565b91505092915050565b6000819050919050565b620003a68162000391565b8114620003b257600080fd5b50565b600081519050620003c6816200039b565b92915050565b600080600080600080600060e0888a031215620003ee57620003ed620001a3565b5b6000620003fe8a828b01620001fb565b975050602088015167ffffffffffffffff811115620004225762000421620001a8565b5b620004308a828b016200035e565b965050604088015167ffffffffffffffff811115620004545762000453620001a8565b5b620004628a828b016200035e565b9550506060620004758a828b01620003b5565b9450506080620004888a828b01620003b5565b93505060a06200049b8a828b01620003b5565b92505060c0620004ae8a828b01620003b5565b91505092959891949750929550565b600082825260208201905092915050565b7f4e6f7420656e6f7567682045544820746f2066756e64207468652077696c6c00600082015250565b600062000506601f83620004bd565b91506200051382620004ce565b602082019050919050565b600060208201905081810360008301526200053981620004f7565b9050919050565b7f4c696d6974206d7573742062652067726561746572207468616e206f7220657160008201527f75616c20746f207472616e7366657220616d6f756e7400000000000000000000602082015250565b60006200059e603683620004bd565b9150620005ab8262000540565b604082019050919050565b60006020820190508181036000830152620005d1816200058f565b9050919050565b600081519050919050565b7f4e487b7100000000000000000000000000000000000000000000000000000000600052602260045260246000fd5b600060028204905060018216806200062b57607f821691505b602082108103620006415762000640620005e3565b5b50919050565b60008190508160005260206000209050919050565b60006020601f8301049050919050565b600082821b905092915050565b600060088302620006ab7fffffffffffffffffffffffffffffffffffffffffffffffffffffffffffffffff826200066c565b620006b786836200066c565b95508019841693508086168417925050509392505050565b6000819050919050565b6000620006fa620006f4620006ee8462000391565b620006cf565b62000391565b9050919050565b6000819050919050565b6200071683620006d9565b6200072e620007258262000701565b84845462000679565b825550505050565b600090565b6200074562000736565b620007528184846200070b565b505050565b5b818110156200077a576200076e6000826200073b565b60018101905062000758565b5050565b601f821115620007c957620007938162000647565b6200079e846200065c565b81016020851015620007ae578190505b620007c6620007bd856200065c565b83018262000757565b50505b505050565b600082821c905092915050565b6000620007ee60001984600802620007ce565b1980831691505092915050565b6000620008098383620007db565b9150826002028217905092915050565b6200082482620005d8565b67ffffffffffffffff81111562000840576200083f6200022d565b5b6200084c825462000612565b620008598282856200077e565b600060209050601f8311600181146200089157600084156200087c578287015190505b620008888582620007fb565b865550620008f8565b601f198416620008a18662000647565b60005b82811015620008cb57848901518255600182019150602085019450602081019050620008a4565b86831015620008eb5784890151620008e7601f891682620007db565b8355505b6001600288020188555050505b505050505050565b610d1980620009106000396000f3fe608060405234801561001057600080fd5b50600436106101165760003560e01c8063839b32f6116100a2578063a4d66daf11610071578063a4d66daf1461028d578063c27e4691146102ab578063cf09e0d0146102c9578063d4a3e364146102e7578063dc7e66021461030557610116565b8063839b32f61461022957806388d47070146102335780638da5cb5b1461025157806391f2ebb81461026f57610116565b80635038c31d116100e95780635038c31d14610193578063504d27fd146101b15780635fd51b37146101cf57806371948b94146101ed57806374324c781461020b57610116565b806312065fe01461011b5780632bf683ef146101395780632ed9b850146101575780634bf0e86814610175575b600080fd5b610123610323565b604051610130919061089c565b60405180910390f35b61014161032b565b60405161014e91906108d2565b60405180910390f35b61015f61050f565b60405161016c919061097d565b60405180910390f35b61017d61059d565b60405161018a919061089c565b60405180910390f35b61019b6105a3565b6040516101a8919061089c565b60405180910390f35b6101b96105a9565b6040516101c6919061089c565b60405180910390f35b6101d76105af565b6040516101e4919061089c565b60405180910390f35b6101f56105b5565b604051610202919061089c565b60405180910390f35b610213610605565b604051610220919061089c565b60405180910390f35b61023161060b565b005b61023b610710565b604051610248919061097d565b60405180910390f35b61025961079e565b60405161026691906109e0565b60405180910390f35b6102776107c2565b60405161028491906109e0565b60405180910390f35b6102956107e8565b6040516102a2919061089c565b60405180910390f35b6102b36107ee565b6040516102c091906108d2565b60405180910390f35b6102d161083a565b6040516102de919061089c565b60405180910390f35b6102ef610840565b6040516102fc919061089c565b60405180910390f35b61030d61086a565b60405161031a91906108d2565b60405180910390f35b600047905090565b6000600454471015610372576040517f08c379a000000000000000000000000000000000000000000000000000000000815260040161036990610a47565b60405180910390fd5b600654600a546103829190610a96565b4210156103c4576040517f08c379a00000000000000000000000000000000000000000000000000000000081526004016103bb90610b3c565b60405180910390fd5b60006009541115610422576005546009546103df9190610a96565b421015610421576040517f08c379a000000000000000000000000000000000000000000000000000000000815260040161041890610bce565b60405180910390fd5b5b600160009054906101000a900473ffffffffffffffffffffffffffffffffffffffff1673ffffffffffffffffffffffffffffffffffffffff166108fc6004549081150290604051600060405180830381858888f1935050505015801561048c573d6000803e3d6000fd5b5042600981905550600160009054906101000a900473ffffffffffffffffffffffffffffffffffffffff1673ffffffffffffffffffffffffffffffffffffffff167f219e38014d0e72b05ead8a8d0258ebea4be20d0c2c1de6c08974a08a6c917f6b60045442604051610500929190610bee565b60405180910390a26001905090565b6003805461051c90610c46565b80601f016020809104026020016040519081016040528092919081815260200182805461054890610c46565b80156105955780601f1061056a57610100808354040283529160200191610595565b820191906000526020600020905b81548152906001019060200180831161057857829003601f168201915b505050505081565b60095481565b60055481565b60045481565b600a5481565b600080600654600a546105c89190610a96565b9050600080600954146105ea576005546009546105e59190610a96565b6105ed565b60005b90508082116105fc57806105fe565b815b9250505090565b60065481565b60008054906101000a900473ffffffffffffffffffffffffffffffffffffffff1673ffffffffffffffffffffffffffffffffffffffff163373ffffffffffffffffffffffffffffffffffffffff1614610699576040517f08c379a000000000000000000000000000000000000000000000000000000000815260040161069090610cc3565b60405180910390fd5b42600a8190555060008054906101000a900473ffffffffffffffffffffffffffffffffffffffff1673ffffffffffffffffffffffffffffffffffffffff167f15c118892bba9735c15cf92518e8921adce5f6b48b3abc56d18a40318a4d572942604051610706919061089c565b60405180910390a2565b6002805461071d90610c46565b80601f016020809104026020016040519081016040528092919081815260200182805461074990610c46565b80156107965780601f1061076b57610100808354040283529160200191610796565b820191906000526020600020905b81548152906001019060200180831161077957829003601f168201915b505050505081565b60008054906101000a900473ffffffffffffffffffffffffffffffffffffffff1681565b600160009054906101000a900473ffffffffffffffffffffffffffffffffffffffff1681565b60085481565b600080600654600a546108019190610a96565b4210159050600080600954148061082757506005546009546108239190610a96565b4210155b90508180156108335750805b9250505090565b60075481565b600080600954036108545760009050610867565b6005546009546108649190610a96565b90505b90565b6000600654600a5461087c9190610a96565b4210905090565b6000819050919050565b61089681610883565b82525050565b60006020820190506108b1600083018461088d565b92915050565b60008115159050919050565b6108cc816108b7565b82525050565b60006020820190506108e760008301846108c3565b92915050565b600081519050919050565b600082825260208201905092915050565b60005b8381101561092757808201518184015260208101905061090c565b60008484015250505050565b6000601f19601f8301169050919050565b600061094f826108ed565b61095981856108f8565b9350610969818560208601610909565b61097281610933565b840191505092915050565b600060208201905081810360008301526109978184610944565b905092915050565b600073ffffffffffffffffffffffffffffffffffffffff82169050919050565b60006109ca8261099f565b9050919050565b6109da816109bf565b82525050565b60006020820190506109f560008301846109d1565b92915050565b7f4e6f7420656e6f7567682062616c616e63650000000000000000000000000000600082015250565b6000610a316012836108f8565b9150610a3c826109fb565b602082019050919050565b60006020820190508181036000830152610a6081610a24565b9050919050565b7f4e487b7100000000000000000000000000000000000000000000000000000000600052601160045260246000fd5b6000610aa182610883565b9150610aac83610883565b9250828201905080821115610ac457610ac3610a67565b5b92915050565b7f4f776e6572206973207374696c6c206163746976652e2043616e6e6f7420747260008201527f616e73666572207965742e000000000000000000000000000000000000000000602082015250565b6000610b26602b836108f8565b9150610b3182610aca565b604082019050919050565b60006020820190508181036000830152610b5581610b19565b9050919050565b7f5472616e73666572206672657175656e6379206c696d6974206e6f742072656160008201527f6368656420796574000000000000000000000000000000000000000000000000602082015250565b6000610bb86028836108f8565b9150610bc382610b5c565b604082019050919050565b60006020820190508181036000830152610be781610bab565b9050919050565b6000604082019050610c03600083018561088d565b610c10602083018461088d565b9392505050565b7f4e487b7100000000000000000000000000000000000000000000000000000000600052602260045260246000fd5b60006002820490506001821680610c5e57607f821691505b602082108103610c7157610c70610c17565b5b50919050565b7f4f6e6c79206f776e65722063616e20636f6e6669726d20616374697669747900600082015250565b6000610cad601f836108f8565b9150610cb882610c77565b602082019050919050565b60006020820190508181036000830152610cdc81610ca0565b905091905056fea2646970667358221220704fd9d140fa563aa936c1d6d417f9a477dd881ff5a16954ca6a1903ca0dfff664736f6c63430008180033",
  "linkReferences": {},
  "deployedLinkReferences": {}
}