{
  "_format": "hh-sol-artifact-1",
  "contractName": "SmartWill",
  "sourceName": "contracts/SmartWill.sol",
  "abi": [
    {
      "inputs": [
        {
          "internalType": "address",
          "name": "_heir",
          "type": "address"
        },
        {
          "internalType": "uint256",
          "name": "_transferAmount",
          "type": "uint256"
        },
        {
          "internalType": "uint256",
          "name": "_transferFrequency",
          "type": "uint256"
        },
        {
          "internalType": "uint256",
          "name": "_willActivateWaitingPeriod",
          "type": "uint256"
        }
      ],
      "stateMutability": "payable",
      "type": "constructor"
    },
    {
      "anonymous": false,
      "inputs": [
        {
          "indexed": true,
          "internalType": "address",
          "name": "heir",
          "type": "address"
        },
        {
          "indexed": false,
          "internalType": "uint256",
          "name": "amount",
          "type": "uint256"
        },
        {
          "indexed": false,
          "internalType": "uint256",
          "name": "timestamp",
          "type": "uint256"
        }
      ],
      "name": "FundsTransferred",
      "type": "event"
    },
    {
      "inputs": [],
      "name": "createdAt",
      "outputs": [
        {
          "internalType": "uint256",
          "name": "",
          "type": "uint256"
        }
      ],
      "stateMutability": "view",
      "type": "function"
    },
    {
      "inputs": [],
      "name": "getBalance",
      "outputs": [
        {
          "internalType": "uint256",
          "name": "",
          "type": "uint256"
        }
      ],
      "stateMutability": "view",
      "type": "function"
    },
    {
      "inputs": [],
      "name": "heir",
      "outputs": [
        {
          "internalType": "address",
          "name": "",
          "type": "address"
        }
      ],
      "stateMutability": "view",
      "type": "function"
    },
    {
      "inputs": [],
      "name": "owner",
      "outputs": [
        {
          "internalType": "address",
          "name": "",
          "type": "address"
        }
      ],
      "stateMutability": "view",
      "type": "function"
    },
    {
      "inputs": [],
      "name": "transferAmount",
      "outputs": [
        {
          "internalType": "uint256",
          "name": "",
          "type": "uint256"
        }
      ],
      "stateMutability": "view",
      "type": "function"
    },
    {
      "inputs": [],
      "name": "transferFrequency",
      "outputs": [
        {
          "internalType": "uint256",
          "name": "",
          "type": "uint256"
        }
      ],
      "stateMutability": "view",
      "type": "function"
    },
    {
      "inputs": [],
      "name": "transferToHeir",
      "outputs": [
        {
          "internalType": "bool",
          "name": "",
          "type": "bool"
        }
      ],
      "stateMutability": "nonpayable",
      "type": "function"
    },
    {
      "inputs": [],
      "name": "willActivateWaitingPeriod",
      "outputs": [
        {
          "internalType": "uint256",
          "name": "",
          "type": "uint256"
        }
      ],
      "stateMutability": "view",
      "type": "function"
    }
  ],
  "bytecode": "0x6080604052604051610750380380610750833981810160405281019061002591906101a7565b82341015610068576040517f08c379a000000000000000000000000000000000000000000000000000000000815260040161005f9061026b565b60405180910390fd5b336000806101000a81548173ffffffffffffffffffffffffffffffffffffffff021916908373ffffffffffffffffffffffffffffffffffffffff16021790555083600160006101000a81548173ffffffffffffffffffffffffffffffffffffffff021916908373ffffffffffffffffffffffffffffffffffffffff160217905550826002819055508160038190555080600481905550426005819055505050505061028b565b600080fd5b600073ffffffffffffffffffffffffffffffffffffffff82169050919050565b600061013e82610113565b9050919050565b61014e81610133565b811461015957600080fd5b50565b60008151905061016b81610145565b92915050565b6000819050919050565b61018481610171565b811461018f57600080fd5b50565b6000815190506101a18161017b565b92915050565b600080600080608085870312156101c1576101c061010e565b5b60006101cf8782880161015c565b94505060206101e087828801610192565b93505060406101f187828801610192565b925050606061020287828801610192565b91505092959194509250565b600082825260208201905092915050565b7f4e6f7420656e6f7567682045544820746f2066756e64207468652077696c6c00600082015250565b6000610255601f8361020e565b91506102608261021f565b602082019050919050565b6000602082019050818103600083015261028481610248565b9050919050565b6104b68061029a6000396000f3fe608060405234801561001057600080fd5b50600436106100885760003560e01c806374324c781161005b57806374324c78146101055780638da5cb5b1461012357806391f2ebb814610141578063cf09e0d01461015f57610088565b806312065fe01461008d5780632bf683ef146100ab5780635038c31d146100c9578063504d27fd146100e7575b600080fd5b61009561017d565b6040516100a2919061032d565b60405180910390f35b6100b3610185565b6040516100c09190610363565b60405180910390f35b6100d16102b2565b6040516100de919061032d565b60405180910390f35b6100ef6102b8565b6040516100fc919061032d565b60405180910390f35b61010d6102be565b60405161011a919061032d565b60405180910390f35b61012b6102c4565b60405161013891906103bf565b60405180910390f35b6101496102e8565b60405161015691906103bf565b60405180910390f35b61016761030e565b604051610174919061032d565b60405180910390f35b600047905090565b60006002544710156101cc576040517f08c379a00000000000000000000000000000000000000000000000000000000081526004016101c390610437565b60405180910390fd5b600160009054906101000a900473ffffffffffffffffffffffffffffffffffffffff1673ffffffffffffffffffffffffffffffffffffffff166108fc6002549081150290604051600060405180830381858888f19350505050158015610236573d6000803e3d6000fd5b50600160009054906101000a900473ffffffffffffffffffffffffffffffffffffffff1673ffffffffffffffffffffffffffffffffffffffff167f219e38014d0e72b05ead8a8d0258ebea4be20d0c2c1de6c08974a08a6c917f6b600254426040516102a3929190610457565b60405180910390a26001905090565b60035481565b60025481565b60045481565b60008054906101000a900473ffffffffffffffffffffffffffffffffffffffff1681565b600160009054906101000a900473ffffffffffffffffffffffffffffffffffffffff1681565b60055481565b6000819050919050565b61032781610314565b82525050565b6000602082019050610342600083018461031e565b92915050565b60008115159050919050565b61035d81610348565b82525050565b60006020820190506103786000830184610354565b92915050565b600073ffffffffffffffffffffffffffffffffffffffff82169050919050565b60006103a98261037e565b9050919050565b6103b98161039e565b82525050565b60006020820190506103d460008301846103b0565b92915050565b600082825260208201905092915050565b7f4e6f7420656e6f7567682062616c616e63650000000000000000000000000000600082015250565b60006104216012836103da565b915061042c826103eb565b602082019050919050565b6000602082019050818103600083015261045081610414565b9050919050565b600060408201905061046c600083018561031e565b610479602083018461031e565b939250505056fea26469706673582212207cd8eff558705a5de33fb8cc355e4cae3734813f22274ca8255ade540c2dedb764736f6c63430008180033",
  "linkReferences": {},
  "deployedLinkReferences": {}
}