{
  "_format": "hh-sol-artifact-1",
  "contractName": "SmartWill",
  "sourceName": "contracts/SmartWill.sol",
  "abi": [
    {
      "inputs": [
        {
          "internalType": "address",
          "name": "_heir",
          "type": "address"
        },
        {
          "internalType": "string",
          "name": "_heirName",
          "type": "string"
        },
        {
          "internalType": "string",
          "name": "_heirRole",
          "type": "string"
        },
        {
          "internalType": "uint256",
          "name": "_transferAmount",
          "type": "uint256"
        },
        {
          "internalType": "uint256",
          "name": "_transferFrequency",
          "type": "uint256"
        },
        {
          "internalType": "uint256",
          "name": "_willActivateWaitingPeriod",
          "type": "uint256"
        },
        {
          "internalType": "uint256",
          "name": "_limit",
          "type": "uint256"
        }
      ],
      "stateMutability": "payable",
      "type": "constructor"
    },
    {
      "anonymous": false,
      "inputs": [
        {
          "indexed": true,
          "internalType": "address",
          "name": "heir",
          "type": "address"
        },
        {
          "indexed": false,
          "internalType": "uint256",
          "name": "amount",
          "type": "uint256"
        },
        {
          "indexed": false,
          "internalType": "uint256",
          "name": "timestamp",
          "type": "uint256"
        }
      ],
      "name": "FundsTransferred",
      "type": "event"
    },
    {
      "inputs": [],
      "name": "canTransferNow",
      "outputs": [
        {
          "internalType": "bool",
          "name": "",
          "type": "bool"
        }
      ],
      "stateMutability": "view",
      "type": "function"
    },
    {
      "inputs": [],
      "name": "createdAt",
      "outputs": [
        {
          "internalType": "uint256",
          "name": "",
          "type": "uint256"
        }
      ],
      "stateMutability": "view",
      "type": "function"
    },
    {
      "inputs": [],
      "name": "getBalance",
      "outputs": [
        {
          "internalType": "uint256",
          "name": "",
          "type": "uint256"
        }
      ],
      "stateMutability": "view",
      "type": "function"
    },
    {
      "inputs": [],
      "name": "getNextTransferTime",
      "outputs": [
        {
          "internalType": "uint256",
          "name": "",
          "type": "uint256"
        }
      ],
      "stateMutability": "view",
      "type": "function"
    },
    {
      "inputs": [],
      "name": "heir",
      "outputs": [
        {
          "internalType": "address",
          "name": "",
          "type": "address"
        }
      ],
      "stateMutability": "view",
      "type": "function"
    },
    {
      "inputs": [],
      "name": "heirName",
      "outputs": [
        {
          "internalType": "string",
          "name": "",
          "type": "string"
        }
      ],
      "stateMutability": "view",
      "type": "function"
    },
    {
      "inputs": [],
      "name": "heirRole",
      "outputs": [
        {
          "internalType": "string",
          "name": "",
          "type": "string"
        }
      ],
      "stateMutability": "view",
      "type": "function"
    },
    {
      "inputs": [],
      "name": "lastTransferTime",
      "outputs": [
        {
          "internalType": "uint256",
          "name": "",
          "type": "uint256"
        }
      ],
      "stateMutability": "view",
      "type": "function"
    },
    {
      "inputs": [],
      "name": "limit",
      "outputs": [
        {
          "internalType": "uint256",
          "name": "",
          "type": "uint256"
        }
      ],
      "stateMutability": "view",
      "type": "function"
    },
    {
      "inputs": [],
      "name": "owner",
      "outputs": [
        {
          "internalType": "address",
          "name": "",
          "type": "address"
        }
      ],
      "stateMutability": "view",
      "type": "function"
    },
    {
      "inputs": [],
      "name": "transferAmount",
      "outputs": [
        {
          "internalType": "uint256",
          "name": "",
          "type": "uint256"
        }
      ],
      "stateMutability": "view",
      "type": "function"
    },
    {
      "inputs": [],
      "name": "transferFrequency",
      "outputs": [
        {
          "internalType": "uint256",
          "name": "",
          "type": "uint256"
        }
      ],
      "stateMutability": "view",
      "type": "function"
    },
    {
      "inputs": [],
      "name": "transferToHeir",
      "outputs": [
        {
          "internalType": "bool",
          "name": "",
          "type": "bool"
        }
      ],
      "stateMutability": "nonpayable",
      "type": "function"
    },
    {
      "inputs": [],
      "name": "willActivateWaitingPeriod",
      "outputs": [
        {
          "internalType": "uint256",
          "name": "",
          "type": "uint256"
        }
      ],
      "stateMutability": "view",
      "type": "function"
    }
  ],
  "bytecode": "0x6080604052604051620012af380380620012af8339818101604052810190620000299190620003c5565b803410156200006f576040517f08c379a0000000000000000000000000000000000000000000000000000000008152600401620000669062000517565b60405180910390fd5b83811015620000b5576040517f08c379a0000000000000000000000000000000000000000000000000000000008152600401620000ac90620005af565b60405180910390fd5b336000806101000a81548173ffffffffffffffffffffffffffffffffffffffff021916908373ffffffffffffffffffffffffffffffffffffffff16021790555086600160006101000a81548173ffffffffffffffffffffffffffffffffffffffff021916908373ffffffffffffffffffffffffffffffffffffffff160217905550856002908162000147919062000812565b50846003908162000159919062000812565b508360048190555082600581905550816006819055508060088190555042600781905550600060098190555050505050505050620008f9565b6000604051905090565b600080fd5b600080fd5b600073ffffffffffffffffffffffffffffffffffffffff82169050919050565b6000620001d382620001a6565b9050919050565b620001e581620001c6565b8114620001f157600080fd5b50565b6000815190506200020581620001da565b92915050565b600080fd5b600080fd5b6000601f19601f8301169050919050565b7f4e487b7100000000000000000000000000000000000000000000000000000000600052604160045260246000fd5b620002608262000215565b810181811067ffffffffffffffff8211171562000282576200028162000226565b5b80604052505050565b60006200029762000192565b9050620002a5828262000255565b919050565b600067ffffffffffffffff821115620002c857620002c762000226565b5b620002d38262000215565b9050602081019050919050565b60005b8381101562000300578082015181840152602081019050620002e3565b60008484015250505050565b6000620003236200031d84620002aa565b6200028b565b90508281526020810184848401111562000342576200034162000210565b5b6200034f848285620002e0565b509392505050565b600082601f8301126200036f576200036e6200020b565b5b8151620003818482602086016200030c565b91505092915050565b6000819050919050565b6200039f816200038a565b8114620003ab57600080fd5b50565b600081519050620003bf8162000394565b92915050565b600080600080600080600060e0888a031215620003e757620003e66200019c565b5b6000620003f78a828b01620001f4565b975050602088015167ffffffffffffffff8111156200041b576200041a620001a1565b5b620004298a828b0162000357565b965050604088015167ffffffffffffffff8111156200044d576200044c620001a1565b5b6200045b8a828b0162000357565b95505060606200046e8a828b01620003ae565b9450506080620004818a828b01620003ae565b93505060a0620004948a828b01620003ae565b92505060c0620004a78a828b01620003ae565b91505092959891949750929550565b600082825260208201905092915050565b7f4e6f7420656e6f7567682045544820746f2066756e64207468652077696c6c00600082015250565b6000620004ff601f83620004b6565b91506200050c82620004c7565b602082019050919050565b600060208201905081810360008301526200053281620004f0565b9050919050565b7f4c696d6974206d7573742062652067726561746572207468616e206f7220657160008201527f75616c20746f207472616e7366657220616d6f756e7400000000000000000000602082015250565b600062000597603683620004b6565b9150620005a48262000539565b604082019050919050565b60006020820190508181036000830152620005ca8162000588565b9050919050565b600081519050919050565b7f4e487b7100000000000000000000000000000000000000000000000000000000600052602260045260246000fd5b600060028204905060018216806200062457607f821691505b6020821081036200063a5762000639620005dc565b5b50919050565b60008190508160005260206000209050919050565b60006020601f8301049050919050565b600082821b905092915050565b600060088302620006a47fffffffffffffffffffffffffffffffffffffffffffffffffffffffffffffffff8262000665565b620006b0868362000665565b95508019841693508086168417925050509392505050565b6000819050919050565b6000620006f3620006ed620006e7846200038a565b620006c8565b6200038a565b9050919050565b6000819050919050565b6200070f83620006d2565b620007276200071e82620006fa565b84845462000672565b825550505050565b600090565b6200073e6200072f565b6200074b81848462000704565b505050565b5b8181101562000773576200076760008262000734565b60018101905062000751565b5050565b601f821115620007c2576200078c8162000640565b620007978462000655565b81016020851015620007a7578190505b620007bf620007b68562000655565b83018262000750565b50505b505050565b600082821c905092915050565b6000620007e760001984600802620007c7565b1980831691505092915050565b6000620008028383620007d4565b9150826002028217905092915050565b6200081d82620005d1565b67ffffffffffffffff81111562000839576200083862000226565b5b6200084582546200060b565b6200085282828562000777565b600060209050601f8311600181146200088a576000841562000875578287015190505b620008818582620007f4565b865550620008f1565b601f1984166200089a8662000640565b60005b82811015620008c4578489015182556001820191506020850194506020810190506200089d565b86831015620008e45784890151620008e0601f891682620007d4565b8355505b6001600288020188555050505b505050505050565b6109a680620009096000396000f3fe608060405234801561001057600080fd5b50600436106100ea5760003560e01c806388d470701161008c578063a4d66daf11610066578063a4d66daf1461021b578063c27e469114610239578063cf09e0d014610257578063d4a3e36414610275576100ea565b806388d47070146101c15780638da5cb5b146101df57806391f2ebb8146101fd576100ea565b80634bf0e868116100c85780634bf0e868146101495780635038c31d14610167578063504d27fd1461018557806374324c78146101a3576100ea565b806312065fe0146100ef5780632bf683ef1461010d5780632ed9b8501461012b575b600080fd5b6100f7610293565b6040516101049190610627565b60405180910390f35b61011561029b565b604051610122919061065d565b60405180910390f35b61013361042d565b6040516101409190610708565b60405180910390f35b6101516104bb565b60405161015e9190610627565b60405180910390f35b61016f6104c1565b60405161017c9190610627565b60405180910390f35b61018d6104c7565b60405161019a9190610627565b60405180910390f35b6101ab6104cd565b6040516101b89190610627565b60405180910390f35b6101c96104d3565b6040516101d69190610708565b60405180910390f35b6101e7610561565b6040516101f4919061076b565b60405180910390f35b610205610585565b604051610212919061076b565b60405180910390f35b6102236105ab565b6040516102309190610627565b60405180910390f35b6102416105b1565b60405161024e919061065d565b60405180910390f35b61025f6105de565b60405161026c9190610627565b60405180910390f35b61027d6105e4565b60405161028a9190610627565b60405180910390f35b600047905090565b60006004544710156102e2576040517f08c379a00000000000000000000000000000000000000000000000000000000081526004016102d9906107d2565b60405180910390fd5b60006009541115610340576005546009546102fd9190610821565b42101561033f576040517f08c379a0000000000000000000000000000000000000000000000000000000008152600401610336906108c7565b60405180910390fd5b5b600160009054906101000a900473ffffffffffffffffffffffffffffffffffffffff1673ffffffffffffffffffffffffffffffffffffffff166108fc6004549081150290604051600060405180830381858888f193505050501580156103aa573d6000803e3d6000fd5b5042600981905550600160009054906101000a900473ffffffffffffffffffffffffffffffffffffffff1673ffffffffffffffffffffffffffffffffffffffff167f219e38014d0e72b05ead8a8d0258ebea4be20d0c2c1de6c08974a08a6c917f6b6004544260405161041e9291906108e7565b60405180910390a26001905090565b6003805461043a9061093f565b80601f01602080910402602001604051908101604052809291908181526020018280546104669061093f565b80156104b35780601f10610488576101008083540402835291602001916104b3565b820191906000526020600020905b81548152906001019060200180831161049657829003601f168201915b505050505081565b60095481565b60055481565b60045481565b60065481565b600280546104e09061093f565b80601f016020809104026020016040519081016040528092919081815260200182805461050c9061093f565b80156105595780601f1061052e57610100808354040283529160200191610559565b820191906000526020600020905b81548152906001019060200180831161053c57829003601f168201915b505050505081565b60008054906101000a900473ffffffffffffffffffffffffffffffffffffffff1681565b600160009054906101000a900473ffffffffffffffffffffffffffffffffffffffff1681565b60085481565b600080600954036105c557600190506105db565b6005546009546105d59190610821565b42101590505b90565b60075481565b600080600954036105f8576000905061060b565b6005546009546106089190610821565b90505b90565b6000819050919050565b6106218161060e565b82525050565b600060208201905061063c6000830184610618565b92915050565b60008115159050919050565b61065781610642565b82525050565b6000602082019050610672600083018461064e565b92915050565b600081519050919050565b600082825260208201905092915050565b60005b838110156106b2578082015181840152602081019050610697565b60008484015250505050565b6000601f19601f8301169050919050565b60006106da82610678565b6106e48185610683565b93506106f4818560208601610694565b6106fd816106be565b840191505092915050565b6000602082019050818103600083015261072281846106cf565b905092915050565b600073ffffffffffffffffffffffffffffffffffffffff82169050919050565b60006107558261072a565b9050919050565b6107658161074a565b82525050565b6000602082019050610780600083018461075c565b92915050565b7f4e6f7420656e6f7567682062616c616e63650000000000000000000000000000600082015250565b60006107bc601283610683565b91506107c782610786565b602082019050919050565b600060208201905081810360008301526107eb816107af565b9050919050565b7f4e487b7100000000000000000000000000000000000000000000000000000000600052601160045260246000fd5b600061082c8261060e565b91506108378361060e565b925082820190508082111561084f5761084e6107f2565b5b92915050565b7f5472616e73666572206672657175656e6379206c696d6974206e6f742072656160008201527f6368656420796574000000000000000000000000000000000000000000000000602082015250565b60006108b1602883610683565b91506108bc82610855565b604082019050919050565b600060208201905081810360008301526108e0816108a4565b9050919050565b60006040820190506108fc6000830185610618565b6109096020830184610618565b9392505050565b7f4e487b7100000000000000000000000000000000000000000000000000000000600052602260045260246000fd5b6000600282049050600182168061095757607f821691505b60208210810361096a57610969610910565b5b5091905056fea26469706673582212208de7bb6e32c26633d9350faae7e13fbbbd58cec377d53c17b15a9ef29ad365f664736f6c63430008180033",
  "linkReferences": {},
  "deployedLinkReferences": {}
}