{
  "_format": "hh-sol-artifact-1",
  "contractName": "SmartWill",
  "sourceName": "contracts/SmartWill.sol",
  "abi": [
    {
      "inputs": [
        {
          "internalType": "address",
          "name": "_heir",
          "type": "address"
        },
        {
          "internalType": "string",
          "name": "_heirName",
          "type": "string"
        },
        {
          "internalType": "string",
          "name": "_heirRole",
          "type": "string"
        },
        {
          "internalType": "uint256",
          "name": "_transferAmount",
          "type": "uint256"
        },
        {
          "internalType": "uint256",
          "name": "_transferFrequency",
          "type": "uint256"
        },
        {
          "internalType": "uint256",
          "name": "_willActivateWaitingPeriod",
          "type": "uint256"
        },
        {
          "internalType": "uint256",
          "name": "_limit",
          "type": "uint256"
        }
      ],
      "stateMutability": "payable",
      "type": "constructor"
    },
    {
      "anonymous": false,
      "inputs": [
        {
          "indexed": true,
          "internalType": "address",
          "name": "owner",
          "type": "address"
        },
        {
          "indexed": false,
          "internalType": "uint256",
          "name": "timestamp",
          "type": "uint256"
        }
      ],
      "name": "ActivityConfirmed",
      "type": "event"
    },
    {
      "anonymous": false,
      "inputs": [
        {
          "indexed": true,
          "internalType": "address",
          "name": "heir",
          "type": "address"
        },
        {
          "indexed": false,
          "internalType": "uint256",
          "name": "amount",
          "type": "uint256"
        },
        {
          "indexed": false,
          "internalType": "uint256",
          "name": "timestamp",
          "type": "uint256"
        }
      ],
      "name": "FundsTransferred",
      "type": "event"
    },
    {
      "inputs": [],
      "name": "canTransferNow",
      "outputs": [
        {
          "internalType": "bool",
          "name": "",
          "type": "bool"
        }
      ],
      "stateMutability": "view",
      "type": "function"
    },
    {
      "inputs": [],
      "name": "confirmActivity",
      "outputs": [],
      "stateMutability": "nonpayable",
      "type": "function"
    },
    {
      "inputs": [],
      "name": "createdAt",
      "outputs": [
        {
          "internalType": "uint256",
          "name": "",
          "type": "uint256"
        }
      ],
      "stateMutability": "view",
      "type": "function"
    },
    {
      "inputs": [],
      "name": "factory",
      "outputs": [
        {
          "internalType": "contract ISmartWillFactory",
          "name": "",
          "type": "address"
        }
      ],
      "stateMutability": "view",
      "type": "function"
    },
    {
      "inputs": [],
      "name": "getBalance",
      "outputs": [
        {
          "internalType": "uint256",
          "name": "",
          "type": "uint256"
        }
      ],
      "stateMutability": "view",
      "type": "function"
    },
    {
      "inputs": [],
      "name": "getNextPossibleTransferTime",
      "outputs": [
        {
          "internalType": "uint256",
          "name": "",
          "type": "uint256"
        }
      ],
      "stateMutability": "view",
      "type": "function"
    },
    {
      "inputs": [],
      "name": "getNextTransferTime",
      "outputs": [
        {
          "internalType": "uint256",
          "name": "",
          "type": "uint256"
        }
      ],
      "stateMutability": "view",
      "type": "function"
    },
    {
      "inputs": [],
      "name": "getOwnerLastActivity",
      "outputs": [
        {
          "internalType": "uint256",
          "name": "",
          "type": "uint256"
        }
      ],
      "stateMutability": "view",
      "type": "function"
    },
    {
      "inputs": [],
      "name": "heir",
      "outputs": [
        {
          "internalType": "address",
          "name": "",
          "type": "address"
        }
      ],
      "stateMutability": "view",
      "type": "function"
    },
    {
      "inputs": [],
      "name": "heirName",
      "outputs": [
        {
          "internalType": "string",
          "name": "",
          "type": "string"
        }
      ],
      "stateMutability": "view",
      "type": "function"
    },
    {
      "inputs": [],
      "name": "heirRole",
      "outputs": [
        {
          "internalType": "string",
          "name": "",
          "type": "string"
        }
      ],
      "stateMutability": "view",
      "type": "function"
    },
    {
      "inputs": [],
      "name": "isOwnerActive",
      "outputs": [
        {
          "internalType": "bool",
          "name": "",
          "type": "bool"
        }
      ],
      "stateMutability": "view",
      "type": "function"
    },
    {
      "inputs": [],
      "name": "lastActivity",
      "outputs": [
        {
          "internalType": "uint256",
          "name": "",
          "type": "uint256"
        }
      ],
      "stateMutability": "view",
      "type": "function"
    },
    {
      "inputs": [],
      "name": "lastTransferTime",
      "outputs": [
        {
          "internalType": "uint256",
          "name": "",
          "type": "uint256"
        }
      ],
      "stateMutability": "view",
      "type": "function"
    },
    {
      "inputs": [],
      "name": "limit",
      "outputs": [
        {
          "internalType": "uint256",
          "name": "",
          "type": "uint256"
        }
      ],
      "stateMutability": "view",
      "type": "function"
    },
    {
      "inputs": [],
      "name": "owner",
      "outputs": [
        {
          "internalType": "address",
          "name": "",
          "type": "address"
        }
      ],
      "stateMutability": "view",
      "type": "function"
    },
    {
      "inputs": [],
      "name": "transferAmount",
      "outputs": [
        {
          "internalType": "uint256",
          "name": "",
          "type": "uint256"
        }
      ],
      "stateMutability": "view",
      "type": "function"
    },
    {
      "inputs": [],
      "name": "transferFrequency",
      "outputs": [
        {
          "internalType": "uint256",
          "name": "",
          "type": "uint256"
        }
      ],
      "stateMutability": "view",
      "type": "function"
    },
    {
      "inputs": [],
      "name": "transferToHeir",
      "outputs": [
        {
          "internalType": "bool",
          "name": "",
          "type": "bool"
        }
      ],
      "stateMutability": "nonpayable",
      "type": "function"
    },
    {
      "inputs": [],
      "name": "willActivateWaitingPeriod",
      "outputs": [
        {
          "internalType": "uint256",
          "name": "",
          "type": "uint256"
        }
      ],
      "stateMutability": "view",
      "type": "function"
    }
  ],
  "bytecode": "0x6080604052604051620018a8380380620018a883398181016040528101906200002991906200040d565b803410156200006f576040517f08c379a000000000000000000000000000000000000000000000000000000000815260040162000066906200055f565b60405180910390fd5b83811015620000b5576040517f08c379a0000000000000000000000000000000000000000000000000000000008152600401620000ac90620005f7565b60405180910390fd5b326000806101000a81548173ffffffffffffffffffffffffffffffffffffffff021916908373ffffffffffffffffffffffffffffffffffffffff16021790555086600160006101000a81548173ffffffffffffffffffffffffffffffffffffffff021916908373ffffffffffffffffffffffffffffffffffffffff16021790555085600290816200014791906200085a565b5084600390816200015991906200085a565b508360048190555082600581905550816006819055508060088190555042600781905550600060098190555042600a8190555033600b60006101000a81548173ffffffffffffffffffffffffffffffffffffffff021916908373ffffffffffffffffffffffffffffffffffffffff1602179055505050505050505062000941565b6000604051905090565b600080fd5b600080fd5b600073ffffffffffffffffffffffffffffffffffffffff82169050919050565b60006200021b82620001ee565b9050919050565b6200022d816200020e565b81146200023957600080fd5b50565b6000815190506200024d8162000222565b92915050565b600080fd5b600080fd5b6000601f19601f8301169050919050565b7f4e487b7100000000000000000000000000000000000000000000000000000000600052604160045260246000fd5b620002a8826200025d565b810181811067ffffffffffffffff82111715620002ca57620002c96200026e565b5b80604052505050565b6000620002df620001da565b9050620002ed82826200029d565b919050565b600067ffffffffffffffff82111562000310576200030f6200026e565b5b6200031b826200025d565b9050602081019050919050565b60005b83811015620003485780820151818401526020810190506200032b565b60008484015250505050565b60006200036b6200036584620002f2565b620002d3565b9050828152602081018484840111156200038a576200038962000258565b5b6200039784828562000328565b509392505050565b600082601f830112620003b757620003b662000253565b5b8151620003c984826020860162000354565b91505092915050565b6000819050919050565b620003e781620003d2565b8114620003f357600080fd5b50565b6000815190506200040781620003dc565b92915050565b600080600080600080600060e0888a0312156200042f576200042e620001e4565b5b60006200043f8a828b016200023c565b975050602088015167ffffffffffffffff811115620004635762000462620001e9565b5b620004718a828b016200039f565b965050604088015167ffffffffffffffff811115620004955762000494620001e9565b5b620004a38a828b016200039f565b9550506060620004b68a828b01620003f6565b9450506080620004c98a828b01620003f6565b93505060a0620004dc8a828b01620003f6565b92505060c0620004ef8a828b01620003f6565b91505092959891949750929550565b600082825260208201905092915050565b7f4e6f7420656e6f7567682045544820746f2066756e64207468652077696c6c00600082015250565b600062000547601f83620004fe565b915062000554826200050f565b602082019050919050565b600060208201905081810360008301526200057a8162000538565b9050919050565b7f4c696d6974206d7573742062652067726561746572207468616e206f7220657160008201527f75616c20746f207472616e7366657220616d6f756e7400000000000000000000602082015250565b6000620005df603683620004fe565b9150620005ec8262000581565b604082019050919050565b600060208201905081810360008301526200061281620005d0565b9050919050565b600081519050919050565b7f4e487b7100000000000000000000000000000000000000000000000000000000600052602260045260246000fd5b600060028204905060018216806200066c57607f821691505b60208210810362000682576200068162000624565b5b50919050565b60008190508160005260206000209050919050565b60006020601f8301049050919050565b600082821b905092915050565b600060088302620006ec7fffffffffffffffffffffffffffffffffffffffffffffffffffffffffffffffff82620006ad565b620006f88683620006ad565b95508019841693508086168417925050509392505050565b6000819050919050565b60006200073b620007356200072f84620003d2565b62000710565b620003d2565b9050919050565b6000819050919050565b62000757836200071a565b6200076f620007668262000742565b848454620006ba565b825550505050565b600090565b6200078662000777565b620007938184846200074c565b505050565b5b81811015620007bb57620007af6000826200077c565b60018101905062000799565b5050565b601f8211156200080a57620007d48162000688565b620007df846200069d565b81016020851015620007ef578190505b62000807620007fe856200069d565b83018262000798565b50505b505050565b600082821c905092915050565b60006200082f600019846008026200080f565b1980831691505092915050565b60006200084a83836200081c565b9150826002028217905092915050565b620008658262000619565b67ffffffffffffffff8111156200088157620008806200026e565b5b6200088d825462000653565b6200089a828285620007bf565b600060209050601f831160018114620008d25760008415620008bd578287015190505b620008c985826200083c565b86555062000939565b601f198416620008e28662000688565b60005b828110156200090c57848901518255600182019150602085019450602081019050620008e5565b868310156200092c578489015162000928601f8916826200081c565b8355505b6001600288020188555050505b505050505050565b610f5780620009516000396000f3fe608060405234801561001057600080fd5b506004361061012c5760003560e01c8063839b32f6116100ad578063c27e469111610071578063c27e4691146102df578063c45a0155146102fd578063cf09e0d01461031b578063d4a3e36414610339578063dc7e6602146103575761012c565b8063839b32f61461025d57806388d47070146102675780638da5cb5b1461028557806391f2ebb8146102a3578063a4d66daf146102c15761012c565b8063504d27fd116100f4578063504d27fd146101c7578063543c75ed146101e55780635fd51b371461020357806371948b941461022157806374324c781461023f5761012c565b806312065fe0146101315780632bf683ef1461014f5780632ed9b8501461016d5780634bf0e8681461018b5780635038c31d146101a9575b600080fd5b610139610375565b6040516101469190610a02565b60405180910390f35b61015761037d565b6040516101649190610a38565b60405180910390f35b61017561056c565b6040516101829190610ae3565b60405180910390f35b6101936105fa565b6040516101a09190610a02565b60405180910390f35b6101b1610600565b6040516101be9190610a02565b60405180910390f35b6101cf610606565b6040516101dc9190610a02565b60405180910390f35b6101ed61060c565b6040516101fa9190610a02565b60405180910390f35b61020b6106cf565b6040516102189190610a02565b60405180910390f35b6102296106d5565b6040516102369190610a02565b60405180910390f35b610247610730565b6040516102549190610a02565b60405180910390f35b610265610736565b005b61026f61083b565b60405161027c9190610ae3565b60405180910390f35b61028d6108c9565b60405161029a9190610b46565b60405180910390f35b6102ab6108ed565b6040516102b89190610b46565b60405180910390f35b6102c9610913565b6040516102d69190610a02565b60405180910390f35b6102e7610919565b6040516102f49190610a38565b60405180910390f35b610305610970565b6040516103129190610bc0565b60405180910390f35b610323610996565b6040516103309190610a02565b60405180910390f35b61034161099c565b60405161034e9190610a02565b60405180910390f35b61035f6109c6565b60405161036c9190610a38565b60405180910390f35b600047905090565b60006004544710156103c4576040517f08c379a00000000000000000000000000000000000000000000000000000000081526004016103bb90610c27565b60405180910390fd5b60006103ce61060c565b9050600654816103de9190610c76565b421015610420576040517f08c379a000000000000000000000000000000000000000000000000000000000815260040161041790610d1c565b60405180910390fd5b6000600954111561047e5760055460095461043b9190610c76565b42101561047d576040517f08c379a000000000000000000000000000000000000000000000000000000000815260040161047490610dae565b60405180910390fd5b5b600160009054906101000a900473ffffffffffffffffffffffffffffffffffffffff1673ffffffffffffffffffffffffffffffffffffffff166108fc6004549081150290604051600060405180830381858888f193505050501580156104e8573d6000803e3d6000fd5b5042600981905550600160009054906101000a900473ffffffffffffffffffffffffffffffffffffffff1673ffffffffffffffffffffffffffffffffffffffff167f219e38014d0e72b05ead8a8d0258ebea4be20d0c2c1de6c08974a08a6c917f6b6004544260405161055c929190610dce565b60405180910390a2600191505090565b6003805461057990610e26565b80601f01602080910402602001604051908101604052809291908181526020018280546105a590610e26565b80156105f25780601f106105c7576101008083540402835291602001916105f2565b820191906000526020600020905b8154815290600101906020018083116105d557829003601f168201915b505050505081565b60095481565b60055481565b60045481565b6000600b60009054906101000a900473ffffffffffffffffffffffffffffffffffffffff1673ffffffffffffffffffffffffffffffffffffffff166331c4f2da60008054906101000a900473ffffffffffffffffffffffffffffffffffffffff166040518263ffffffff1660e01b81526004016106899190610b46565b602060405180830381865afa1580156106a6573d6000803e3d6000fd5b505050506040513d601f19601f820116820180604052508101906106ca9190610e88565b905090565b600a5481565b6000806106e061060c565b90506000600654826106f29190610c76565b9050600080600954146107145760055460095461070f9190610c76565b610717565b60005b90508082116107265780610728565b815b935050505090565b60065481565b60008054906101000a900473ffffffffffffffffffffffffffffffffffffffff1673ffffffffffffffffffffffffffffffffffffffff163373ffffffffffffffffffffffffffffffffffffffff16146107c4576040517f08c379a00000000000000000000000000000000000000000000000000000000081526004016107bb90610f01565b60405180910390fd5b42600a8190555060008054906101000a900473ffffffffffffffffffffffffffffffffffffffff1673ffffffffffffffffffffffffffffffffffffffff167f15c118892bba9735c15cf92518e8921adce5f6b48b3abc56d18a40318a4d5729426040516108319190610a02565b60405180910390a2565b6002805461084890610e26565b80601f016020809104026020016040519081016040528092919081815260200182805461087490610e26565b80156108c15780601f10610896576101008083540402835291602001916108c1565b820191906000526020600020905b8154815290600101906020018083116108a457829003601f168201915b505050505081565b60008054906101000a900473ffffffffffffffffffffffffffffffffffffffff1681565b600160009054906101000a900473ffffffffffffffffffffffffffffffffffffffff1681565b60085481565b60008061092461060c565b90506000600654826109369190610c76565b4210159050600080600954148061095c57506005546009546109589190610c76565b4210155b90508180156109685750805b935050505090565b600b60009054906101000a900473ffffffffffffffffffffffffffffffffffffffff1681565b60075481565b600080600954036109b057600090506109c3565b6005546009546109c09190610c76565b90505b90565b6000806109d161060c565b9050600654816109e19190610c76565b421091505090565b6000819050919050565b6109fc816109e9565b82525050565b6000602082019050610a1760008301846109f3565b92915050565b60008115159050919050565b610a3281610a1d565b82525050565b6000602082019050610a4d6000830184610a29565b92915050565b600081519050919050565b600082825260208201905092915050565b60005b83811015610a8d578082015181840152602081019050610a72565b60008484015250505050565b6000601f19601f8301169050919050565b6000610ab582610a53565b610abf8185610a5e565b9350610acf818560208601610a6f565b610ad881610a99565b840191505092915050565b60006020820190508181036000830152610afd8184610aaa565b905092915050565b600073ffffffffffffffffffffffffffffffffffffffff82169050919050565b6000610b3082610b05565b9050919050565b610b4081610b25565b82525050565b6000602082019050610b5b6000830184610b37565b92915050565b6000819050919050565b6000610b86610b81610b7c84610b05565b610b61565b610b05565b9050919050565b6000610b9882610b6b565b9050919050565b6000610baa82610b8d565b9050919050565b610bba81610b9f565b82525050565b6000602082019050610bd56000830184610bb1565b92915050565b7f4e6f7420656e6f7567682062616c616e63650000000000000000000000000000600082015250565b6000610c11601283610a5e565b9150610c1c82610bdb565b602082019050919050565b60006020820190508181036000830152610c4081610c04565b9050919050565b7f4e487b7100000000000000000000000000000000000000000000000000000000600052601160045260246000fd5b6000610c81826109e9565b9150610c8c836109e9565b9250828201905080821115610ca457610ca3610c47565b5b92915050565b7f4f776e6572206973207374696c6c206163746976652e2043616e6e6f7420747260008201527f616e73666572207965742e000000000000000000000000000000000000000000602082015250565b6000610d06602b83610a5e565b9150610d1182610caa565b604082019050919050565b60006020820190508181036000830152610d3581610cf9565b9050919050565b7f5472616e73666572206672657175656e6379206c696d6974206e6f742072656160008201527f6368656420796574000000000000000000000000000000000000000000000000602082015250565b6000610d98602883610a5e565b9150610da382610d3c565b604082019050919050565b60006020820190508181036000830152610dc781610d8b565b9050919050565b6000604082019050610de360008301856109f3565b610df060208301846109f3565b9392505050565b7f4e487b7100000000000000000000000000000000000000000000000000000000600052602260045260246000fd5b60006002820490506001821680610e3e57607f821691505b602082108103610e5157610e50610df7565b5b50919050565b600080fd5b610e65816109e9565b8114610e7057600080fd5b50565b600081519050610e8281610e5c565b92915050565b600060208284031215610e9e57610e9d610e57565b5b6000610eac84828501610e73565b91505092915050565b7f4f6e6c79206f776e65722063616e20636f6e6669726d20616374697669747900600082015250565b6000610eeb601f83610a5e565b9150610ef682610eb5565b602082019050919050565b60006020820190508181036000830152610f1a81610ede565b905091905056fea26469706673582212206d7d641d12219db3bb7eb2830e9920c8e789f0baabd6ddda65a84d8772cb116864736f6c63430008180033",
  "linkReferences": {},
  "deployedLinkReferences": {}
}