{
  "_format": "hh-sol-artifact-1",
  "contractName": "SmartWillFactory",
  "sourceName": "contracts/SmartWillFactory.sol",
  "abi": [
    {
      "anonymous": false,
      "inputs": [
        {
          "indexed": true,
          "internalType": "address",
          "name": "willAddress",
          "type": "address"
        },
        {
          "indexed": true,
          "internalType": "address",
          "name": "heir",
          "type": "address"
        },
        {
          "indexed": false,
          "internalType": "uint256",
          "name": "amount",
          "type": "uint256"
        },
        {
          "indexed": false,
          "internalType": "uint256",
          "name": "timestamp",
          "type": "uint256"
        }
      ],
      "name": "FundsTransferred",
      "type": "event"
    },
    {
      "anonymous": false,
      "inputs": [
        {
          "indexed": true,
          "internalType": "address",
          "name": "owner",
          "type": "address"
        },
        {
          "indexed": false,
          "internalType": "uint256",
          "name": "timestamp",
          "type": "uint256"
        }
      ],
      "name": "PingSent",
      "type": "event"
    },
    {
      "anonymous": false,
      "inputs": [
        {
          "indexed": true,
          "internalType": "address",
          "name": "willAddress",
          "type": "address"
        },
        {
          "indexed": true,
          "internalType": "address",
          "name": "owner",
          "type": "address"
        }
      ],
      "name": "WillCreated",
      "type": "event"
    },
    {
      "inputs": [
        {
          "internalType": "address",
          "name": "willAddress",
          "type": "address"
        }
      ],
      "name": "checkAndTransfer",
      "outputs": [],
      "stateMutability": "nonpayable",
      "type": "function"
    },
    {
      "inputs": [
        {
          "internalType": "address",
          "name": "heir",
          "type": "address"
        },
        {
          "internalType": "string",
          "name": "heirName",
          "type": "string"
        },
        {
          "internalType": "string",
          "name": "heirRole",
          "type": "string"
        },
        {
          "internalType": "uint256",
          "name": "transferAmount",
          "type": "uint256"
        },
        {
          "internalType": "uint256",
          "name": "transferFrequency",
          "type": "uint256"
        },
        {
          "internalType": "uint256",
          "name": "willActivateWaitingPeriod",
          "type": "uint256"
        },
        {
          "internalType": "uint256",
          "name": "limit",
          "type": "uint256"
        }
      ],
      "name": "createSmartWill",
      "outputs": [],
      "stateMutability": "payable",
      "type": "function"
    },
    {
      "inputs": [
        {
          "internalType": "uint256",
          "name": "",
          "type": "uint256"
        }
      ],
      "name": "deployedWills",
      "outputs": [
        {
          "internalType": "address",
          "name": "",
          "type": "address"
        }
      ],
      "stateMutability": "view",
      "type": "function"
    },
    {
      "inputs": [],
      "name": "getDeployedWills",
      "outputs": [
        {
          "internalType": "address[]",
          "name": "",
          "type": "address[]"
        }
      ],
      "stateMutability": "view",
      "type": "function"
    },
    {
      "inputs": [],
      "name": "getLastPing",
      "outputs": [
        {
          "internalType": "uint256",
          "name": "",
          "type": "uint256"
        }
      ],
      "stateMutability": "view",
      "type": "function"
    },
    {
      "inputs": [
        {
          "internalType": "address",
          "name": "user",
          "type": "address"
        }
      ],
      "name": "getLastPingOf",
      "outputs": [
        {
          "internalType": "uint256",
          "name": "",
          "type": "uint256"
        }
      ],
      "stateMutability": "view",
      "type": "function"
    },
    {
      "inputs": [
        {
          "internalType": "address",
          "name": "",
          "type": "address"
        }
      ],
      "name": "lastPings",
      "outputs": [
        {
          "internalType": "uint256",
          "name": "",
          "type": "uint256"
        }
      ],
      "stateMutability": "view",
      "type": "function"
    },
    {
      "inputs": [],
      "name": "ping",
      "outputs": [],
      "stateMutability": "nonpayable",
      "type": "function"
    }
  ],
  "bytecode": "0x608060405234801561001057600080fd5b5061224f806100206000396000f3fe608060405260043610620000865760003560e01c80635c36b18611620000555780635c36b1861462000185578063a7f9e329146200019f578063c4c474a714620001cf578063f3b95dc114620001ff5762000086565b80630e190f65146200008b57806331c4f2da14620000b95780633f46f1ed14620000fd5780634ba0682e1462000141575b600080fd5b3480156200009857600080fd5b50620000b76004803603810190620000b19190620009f4565b6200021f565b005b348015620000c657600080fd5b50620000e56004803603810190620000df9190620009f4565b620005ba565b604051620000f4919062000a41565b60405180910390f35b3480156200010a57600080fd5b5062000129600480360381019062000123919062000a8f565b62000603565b60405162000138919062000ad2565b60405180910390f35b3480156200014e57600080fd5b506200016d6004803603810190620001679190620009f4565b62000643565b6040516200017c919062000a41565b60405180910390f35b3480156200019257600080fd5b506200019d6200065b565b005b348015620001ac57600080fd5b50620001b7620006f1565b604051620001c6919062000a41565b60405180910390f35b348015620001dc57600080fd5b50620001e762000738565b604051620001f6919062000bbd565b60405180910390f35b6200021d600480360381019062000217919062000d43565b620007c8565b005b600081905060008173ffffffffffffffffffffffffffffffffffffffff16638da5cb5b6040518163ffffffff1660e01b8152600401602060405180830381865afa15801562000272573d6000803e3d6000fd5b505050506040513d601f19601f8201168201806040525081019062000298919062000e4b565b905060008273ffffffffffffffffffffffffffffffffffffffff166374324c786040518163ffffffff1660e01b8152600401602060405180830381865afa158015620002e8573d6000803e3d6000fd5b505050506040513d601f19601f820116820180604052508101906200030e919062000e94565b905080600160008473ffffffffffffffffffffffffffffffffffffffff1673ffffffffffffffffffffffffffffffffffffffff168152602001908152602001600020546200035d919062000ef5565b4211620003a1576040517f08c379a0000000000000000000000000000000000000000000000000000000008152600401620003989062000f91565b60405180910390fd5b60008373ffffffffffffffffffffffffffffffffffffffff166391f2ebb86040518163ffffffff1660e01b8152600401602060405180830381865afa158015620003ef573d6000803e3d6000fd5b505050506040513d601f19601f8201168201806040525081019062000415919062000e4b565b905060008473ffffffffffffffffffffffffffffffffffffffff1663504d27fd6040518163ffffffff1660e01b8152600401602060405180830381865afa15801562000465573d6000803e3d6000fd5b505050506040513d601f19601f820116820180604052508101906200048b919062000e94565b905060008573ffffffffffffffffffffffffffffffffffffffff16632bf683ef6040518163ffffffff1660e01b81526004016020604051808303816000875af1158015620004dd573d6000803e3d6000fd5b505050506040513d601f19601f8201168201806040525081019062000503919062000ff0565b90508062000548576040517f08c379a00000000000000000000000000000000000000000000000000000000081526004016200053f9062001072565b60405180910390fd5b8273ffffffffffffffffffffffffffffffffffffffff168773ffffffffffffffffffffffffffffffffffffffff167fbd8ba14b7834d50f4d38587359558952e7e638273e9c027fbfa7d41b364e98258442604051620005a992919062001094565b60405180910390a350505050505050565b6000600160008373ffffffffffffffffffffffffffffffffffffffff1673ffffffffffffffffffffffffffffffffffffffff168152602001908152602001600020549050919050565b600081815481106200061457600080fd5b906000526020600020016000915054906101000a900473ffffffffffffffffffffffffffffffffffffffff1681565b60016020528060005260406000206000915090505481565b42600160003373ffffffffffffffffffffffffffffffffffffffff1673ffffffffffffffffffffffffffffffffffffffff168152602001908152602001600020819055503373ffffffffffffffffffffffffffffffffffffffff167fd5fd11568fef84379772ca0ede26f57178e76ab3f922db124b3ef166646a1b5842604051620006e7919062000a41565b60405180910390a2565b6000600160003373ffffffffffffffffffffffffffffffffffffffff1673ffffffffffffffffffffffffffffffffffffffff16815260200190815260200160002054905090565b60606000805480602002602001604051908101604052809291908181526020018280548015620007be57602002820191906000526020600020905b8160009054906101000a900473ffffffffffffffffffffffffffffffffffffffff1673ffffffffffffffffffffffffffffffffffffffff168152602001906001019080831162000773575b5050505050905090565b60003488888888888888604051620007e0906200096d565b620007f2979695949392919062001139565b6040518091039082f090508015801562000810573d6000803e3d6000fd5b50905060008190506000819080600181540180825580915050600190039060005260206000200160009091909190916101000a81548173ffffffffffffffffffffffffffffffffffffffff021916908373ffffffffffffffffffffffffffffffffffffffff1602179055506000600160003373ffffffffffffffffffffffffffffffffffffffff1673ffffffffffffffffffffffffffffffffffffffff1681526020019081526020016000205403620009085742600160003373ffffffffffffffffffffffffffffffffffffffff1673ffffffffffffffffffffffffffffffffffffffff168152602001908152602001600020819055505b3373ffffffffffffffffffffffffffffffffffffffff168173ffffffffffffffffffffffffffffffffffffffff167f19b0cad815d24c07aaa916842d617a9e8aa5dc7c762b1997b756561aecba106c60405160405180910390a3505050505050505050565b61105580620011c583390190565b6000604051905090565b600080fd5b600080fd5b600073ffffffffffffffffffffffffffffffffffffffff82169050919050565b6000620009bc826200098f565b9050919050565b620009ce81620009af565b8114620009da57600080fd5b50565b600081359050620009ee81620009c3565b92915050565b60006020828403121562000a0d5762000a0c62000985565b5b600062000a1d84828501620009dd565b91505092915050565b6000819050919050565b62000a3b8162000a26565b82525050565b600060208201905062000a58600083018462000a30565b92915050565b62000a698162000a26565b811462000a7557600080fd5b50565b60008135905062000a898162000a5e565b92915050565b60006020828403121562000aa85762000aa762000985565b5b600062000ab88482850162000a78565b91505092915050565b62000acc81620009af565b82525050565b600060208201905062000ae9600083018462000ac1565b92915050565b600081519050919050565b600082825260208201905092915050565b6000819050602082019050919050565b62000b2681620009af565b82525050565b600062000b3a838362000b1b565b60208301905092915050565b6000602082019050919050565b600062000b608262000aef565b62000b6c818562000afa565b935062000b798362000b0b565b8060005b8381101562000bb057815162000b94888262000b2c565b975062000ba18362000b46565b92505060018101905062000b7d565b5085935050505092915050565b6000602082019050818103600083015262000bd9818462000b53565b905092915050565b600080fd5b600080fd5b6000601f19601f8301169050919050565b7f4e487b7100000000000000000000000000000000000000000000000000000000600052604160045260246000fd5b62000c368262000beb565b810181811067ffffffffffffffff8211171562000c585762000c5762000bfc565b5b80604052505050565b600062000c6d6200097b565b905062000c7b828262000c2b565b919050565b600067ffffffffffffffff82111562000c9e5762000c9d62000bfc565b5b62000ca98262000beb565b9050602081019050919050565b82818337600083830152505050565b600062000cdc62000cd68462000c80565b62000c61565b90508281526020810184848401111562000cfb5762000cfa62000be6565b5b62000d0884828562000cb6565b509392505050565b600082601f83011262000d285762000d2762000be1565b5b813562000d3a84826020860162000cc5565b91505092915050565b600080600080600080600060e0888a03121562000d655762000d6462000985565b5b600062000d758a828b01620009dd565b975050602088013567ffffffffffffffff81111562000d995762000d986200098a565b5b62000da78a828b0162000d10565b965050604088013567ffffffffffffffff81111562000dcb5762000dca6200098a565b5b62000dd98a828b0162000d10565b955050606062000dec8a828b0162000a78565b945050608062000dff8a828b0162000a78565b93505060a062000e128a828b0162000a78565b92505060c062000e258a828b0162000a78565b91505092959891949750929550565b60008151905062000e4581620009c3565b92915050565b60006020828403121562000e645762000e6362000985565b5b600062000e748482850162000e34565b91505092915050565b60008151905062000e8e8162000a5e565b92915050565b60006020828403121562000ead5762000eac62000985565b5b600062000ebd8482850162000e7d565b91505092915050565b7f4e487b7100000000000000000000000000000000000000000000000000000000600052601160045260246000fd5b600062000f028262000a26565b915062000f0f8362000a26565b925082820190508082111562000f2a5762000f2962000ec6565b5b92915050565b600082825260208201905092915050565b7f57696c6c206973207374696c6c20616374697665000000000000000000000000600082015250565b600062000f7960148362000f30565b915062000f868262000f41565b602082019050919050565b6000602082019050818103600083015262000fac8162000f6a565b9050919050565b60008115159050919050565b62000fca8162000fb3565b811462000fd657600080fd5b50565b60008151905062000fea8162000fbf565b92915050565b60006020828403121562001009576200100862000985565b5b6000620010198482850162000fd9565b91505092915050565b7f5472616e73666572206661696c65640000000000000000000000000000000000600082015250565b60006200105a600f8362000f30565b9150620010678262001022565b602082019050919050565b600060208201905081810360008301526200108d816200104b565b9050919050565b6000604082019050620010ab600083018562000a30565b620010ba602083018462000a30565b9392505050565b600081519050919050565b60005b83811015620010ec578082015181840152602081019050620010cf565b60008484015250505050565b60006200110582620010c1565b62001111818562000f30565b935062001123818560208601620010cc565b6200112e8162000beb565b840191505092915050565b600060e08201905062001150600083018a62000ac1565b8181036020830152620011648189620010f8565b905081810360408301526200117a8188620010f8565b90506200118b606083018762000a30565b6200119a608083018662000a30565b620011a960a083018562000a30565b620011b860c083018462000a30565b9897505050505050505056fe608060405260405162001055380380620010558339818101604052810190620000299190620003bd565b803410156200006f576040517f08c379a000000000000000000000000000000000000000000000000000000000815260040162000066906200050f565b60405180910390fd5b83811015620000b5576040517f08c379a0000000000000000000000000000000000000000000000000000000008152600401620000ac90620005a7565b60405180910390fd5b336000806101000a81548173ffffffffffffffffffffffffffffffffffffffff021916908373ffffffffffffffffffffffffffffffffffffffff16021790555086600160006101000a81548173ffffffffffffffffffffffffffffffffffffffff021916908373ffffffffffffffffffffffffffffffffffffffff16021790555085600290816200014791906200080a565b5084600390816200015991906200080a565b50836004819055508260058190555081600681905550806008819055504260078190555050505050505050620008f1565b6000604051905090565b600080fd5b600080fd5b600073ffffffffffffffffffffffffffffffffffffffff82169050919050565b6000620001cb826200019e565b9050919050565b620001dd81620001be565b8114620001e957600080fd5b50565b600081519050620001fd81620001d2565b92915050565b600080fd5b600080fd5b6000601f19601f8301169050919050565b7f4e487b7100000000000000000000000000000000000000000000000000000000600052604160045260246000fd5b62000258826200020d565b810181811067ffffffffffffffff821117156200027a57620002796200021e565b5b80604052505050565b60006200028f6200018a565b90506200029d82826200024d565b919050565b600067ffffffffffffffff821115620002c057620002bf6200021e565b5b620002cb826200020d565b9050602081019050919050565b60005b83811015620002f8578082015181840152602081019050620002db565b60008484015250505050565b60006200031b6200031584620002a2565b62000283565b9050828152602081018484840111156200033a576200033962000208565b5b62000347848285620002d8565b509392505050565b600082601f83011262000367576200036662000203565b5b81516200037984826020860162000304565b91505092915050565b6000819050919050565b620003978162000382565b8114620003a357600080fd5b50565b600081519050620003b7816200038c565b92915050565b600080600080600080600060e0888a031215620003df57620003de62000194565b5b6000620003ef8a828b01620001ec565b975050602088015167ffffffffffffffff81111562000413576200041262000199565b5b620004218a828b016200034f565b965050604088015167ffffffffffffffff81111562000445576200044462000199565b5b620004538a828b016200034f565b9550506060620004668a828b01620003a6565b9450506080620004798a828b01620003a6565b93505060a06200048c8a828b01620003a6565b92505060c06200049f8a828b01620003a6565b91505092959891949750929550565b600082825260208201905092915050565b7f4e6f7420656e6f7567682045544820746f2066756e64207468652077696c6c00600082015250565b6000620004f7601f83620004ae565b91506200050482620004bf565b602082019050919050565b600060208201905081810360008301526200052a81620004e8565b9050919050565b7f4c696d6974206d7573742062652067726561746572207468616e206f7220657160008201527f75616c20746f207472616e7366657220616d6f756e7400000000000000000000602082015250565b60006200058f603683620004ae565b91506200059c8262000531565b604082019050919050565b60006020820190508181036000830152620005c28162000580565b9050919050565b600081519050919050565b7f4e487b7100000000000000000000000000000000000000000000000000000000600052602260045260246000fd5b600060028204905060018216806200061c57607f821691505b602082108103620006325762000631620005d4565b5b50919050565b60008190508160005260206000209050919050565b60006020601f8301049050919050565b600082821b905092915050565b6000600883026200069c7fffffffffffffffffffffffffffffffffffffffffffffffffffffffffffffffff826200065d565b620006a886836200065d565b95508019841693508086168417925050509392505050565b6000819050919050565b6000620006eb620006e5620006df8462000382565b620006c0565b62000382565b9050919050565b6000819050919050565b6200070783620006ca565b6200071f6200071682620006f2565b8484546200066a565b825550505050565b600090565b6200073662000727565b62000743818484620006fc565b505050565b5b818110156200076b576200075f6000826200072c565b60018101905062000749565b5050565b601f821115620007ba57620007848162000638565b6200078f846200064d565b810160208510156200079f578190505b620007b7620007ae856200064d565b83018262000748565b50505b505050565b600082821c905092915050565b6000620007df60001984600802620007bf565b1980831691505092915050565b6000620007fa8383620007cc565b9150826002028217905092915050565b6200081582620005c9565b67ffffffffffffffff8111156200083157620008306200021e565b5b6200083d825462000603565b6200084a8282856200076f565b600060209050601f8311600181146200088257600084156200086d578287015190505b620008798582620007ec565b865550620008e9565b601f198416620008928662000638565b60005b82811015620008bc5784890151825560018201915060208501945060208101905062000895565b86831015620008dc5784890151620008d8601f891682620007cc565b8355505b6001600288020188555050505b505050505050565b61075480620009016000396000f3fe608060405234801561001057600080fd5b50600436106100a95760003560e01c806374324c781161007157806374324c781461014457806388d47070146101625780638da5cb5b1461018057806391f2ebb81461019e578063a4d66daf146101bc578063cf09e0d0146101da576100a9565b806312065fe0146100ae5780632bf683ef146100cc5780632ed9b850146100ea5780635038c31d14610108578063504d27fd14610126575b600080fd5b6100b66101f8565b6040516100c391906104ca565b60405180910390f35b6100d4610200565b6040516100e19190610500565b60405180910390f35b6100f261032d565b6040516100ff91906105ab565b60405180910390f35b6101106103bb565b60405161011d91906104ca565b60405180910390f35b61012e6103c1565b60405161013b91906104ca565b60405180910390f35b61014c6103c7565b60405161015991906104ca565b60405180910390f35b61016a6103cd565b60405161017791906105ab565b60405180910390f35b61018861045b565b604051610195919061060e565b60405180910390f35b6101a661047f565b6040516101b3919061060e565b60405180910390f35b6101c46104a5565b6040516101d191906104ca565b60405180910390f35b6101e26104ab565b6040516101ef91906104ca565b60405180910390f35b600047905090565b6000600454471015610247576040517f08c379a000000000000000000000000000000000000000000000000000000000815260040161023e90610675565b60405180910390fd5b600160009054906101000a900473ffffffffffffffffffffffffffffffffffffffff1673ffffffffffffffffffffffffffffffffffffffff166108fc6004549081150290604051600060405180830381858888f193505050501580156102b1573d6000803e3d6000fd5b50600160009054906101000a900473ffffffffffffffffffffffffffffffffffffffff1673ffffffffffffffffffffffffffffffffffffffff167f219e38014d0e72b05ead8a8d0258ebea4be20d0c2c1de6c08974a08a6c917f6b6004544260405161031e929190610695565b60405180910390a26001905090565b6003805461033a906106ed565b80601f0160208091040260200160405190810160405280929190818152602001828054610366906106ed565b80156103b35780601f10610388576101008083540402835291602001916103b3565b820191906000526020600020905b81548152906001019060200180831161039657829003601f168201915b505050505081565b60055481565b60045481565b60065481565b600280546103da906106ed565b80601f0160208091040260200160405190810160405280929190818152602001828054610406906106ed565b80156104535780601f1061042857610100808354040283529160200191610453565b820191906000526020600020905b81548152906001019060200180831161043657829003601f168201915b505050505081565b60008054906101000a900473ffffffffffffffffffffffffffffffffffffffff1681565b600160009054906101000a900473ffffffffffffffffffffffffffffffffffffffff1681565b60085481565b60075481565b6000819050919050565b6104c4816104b1565b82525050565b60006020820190506104df60008301846104bb565b92915050565b60008115159050919050565b6104fa816104e5565b82525050565b600060208201905061051560008301846104f1565b92915050565b600081519050919050565b600082825260208201905092915050565b60005b8381101561055557808201518184015260208101905061053a565b60008484015250505050565b6000601f19601f8301169050919050565b600061057d8261051b565b6105878185610526565b9350610597818560208601610537565b6105a081610561565b840191505092915050565b600060208201905081810360008301526105c58184610572565b905092915050565b600073ffffffffffffffffffffffffffffffffffffffff82169050919050565b60006105f8826105cd565b9050919050565b610608816105ed565b82525050565b600060208201905061062360008301846105ff565b92915050565b7f4e6f7420656e6f7567682062616c616e63650000000000000000000000000000600082015250565b600061065f601283610526565b915061066a82610629565b602082019050919050565b6000602082019050818103600083015261068e81610652565b9050919050565b60006040820190506106aa60008301856104bb565b6106b760208301846104bb565b9392505050565b7f4e487b7100000000000000000000000000000000000000000000000000000000600052602260045260246000fd5b6000600282049050600182168061070557607f821691505b602082108103610718576107176106be565b5b5091905056fea26469706673582212209e41fae2b2c81e55c02545af63e1f4ea9998cfbd3ee06521a104047fae2bc23a64736f6c63430008180033a2646970667358221220fcab4d65ccd388d93b8f32345f23e36e8ae8e53e7e25ce89c4b568350949355364736f6c63430008180033",
  "linkReferences": {},
  "deployedLinkReferences": {}
}