{
  "_format": "hh-sol-artifact-1",
  "contractName": "SmartWill",
  "sourceName": "contracts/SmartWill.sol",
  "abi": [
    {
      "inputs": [
        {
          "internalType": "address",
          "name": "_heir",
          "type": "address"
        },
        {
          "internalType": "string",
          "name": "_heirName",
          "type": "string"
        },
        {
          "internalType": "string",
          "name": "_heirRole",
          "type": "string"
        },
        {
          "internalType": "uint256",
          "name": "_transferAmount",
          "type": "uint256"
        },
        {
          "internalType": "uint256",
          "name": "_transferFrequency",
          "type": "uint256"
        },
        {
          "internalType": "uint256",
          "name": "_willActivateWaitingPeriod",
          "type": "uint256"
        },
        {
          "internalType": "uint256",
          "name": "_limit",
          "type": "uint256"
        }
      ],
      "stateMutability": "payable",
      "type": "constructor"
    },
    {
      "anonymous": false,
      "inputs": [
        {
          "indexed": true,
          "internalType": "address",
          "name": "heir",
          "type": "address"
        },
        {
          "indexed": false,
          "internalType": "uint256",
          "name": "amount",
          "type": "uint256"
        },
        {
          "indexed": false,
          "internalType": "uint256",
          "name": "timestamp",
          "type": "uint256"
        }
      ],
      "name": "FundsTransferred",
      "type": "event"
    },
    {
      "inputs": [],
      "name": "createdAt",
      "outputs": [
        {
          "internalType": "uint256",
          "name": "",
          "type": "uint256"
        }
      ],
      "stateMutability": "view",
      "type": "function"
    },
    {
      "inputs": [],
      "name": "getBalance",
      "outputs": [
        {
          "internalType": "uint256",
          "name": "",
          "type": "uint256"
        }
      ],
      "stateMutability": "view",
      "type": "function"
    },
    {
      "inputs": [],
      "name": "heir",
      "outputs": [
        {
          "internalType": "address",
          "name": "",
          "type": "address"
        }
      ],
      "stateMutability": "view",
      "type": "function"
    },
    {
      "inputs": [],
      "name": "heirName",
      "outputs": [
        {
          "internalType": "string",
          "name": "",
          "type": "string"
        }
      ],
      "stateMutability": "view",
      "type": "function"
    },
    {
      "inputs": [],
      "name": "heirRole",
      "outputs": [
        {
          "internalType": "string",
          "name": "",
          "type": "string"
        }
      ],
      "stateMutability": "view",
      "type": "function"
    },
    {
      "inputs": [],
      "name": "limit",
      "outputs": [
        {
          "internalType": "uint256",
          "name": "",
          "type": "uint256"
        }
      ],
      "stateMutability": "view",
      "type": "function"
    },
    {
      "inputs": [],
      "name": "owner",
      "outputs": [
        {
          "internalType": "address",
          "name": "",
          "type": "address"
        }
      ],
      "stateMutability": "view",
      "type": "function"
    },
    {
      "inputs": [],
      "name": "transferAmount",
      "outputs": [
        {
          "internalType": "uint256",
          "name": "",
          "type": "uint256"
        }
      ],
      "stateMutability": "view",
      "type": "function"
    },
    {
      "inputs": [],
      "name": "transferFrequency",
      "outputs": [
        {
          "internalType": "uint256",
          "name": "",
          "type": "uint256"
        }
      ],
      "stateMutability": "view",
      "type": "function"
    },
    {
      "inputs": [],
      "name": "transferToHeir",
      "outputs": [
        {
          "internalType": "bool",
          "name": "",
          "type": "bool"
        }
      ],
      "stateMutability": "nonpayable",
      "type": "function"
    },
    {
      "inputs": [],
      "name": "willActivateWaitingPeriod",
      "outputs": [
        {
          "internalType": "uint256",
          "name": "",
          "type": "uint256"
        }
      ],
      "stateMutability": "view",
      "type": "function"
    }
  ],
  "bytecode": "0x608060405260405162001055380380620010558339818101604052810190620000299190620003bd565b803410156200006f576040517f08c379a000000000000000000000000000000000000000000000000000000000815260040162000066906200050f565b60405180910390fd5b83811015620000b5576040517f08c379a0000000000000000000000000000000000000000000000000000000008152600401620000ac90620005a7565b60405180910390fd5b336000806101000a81548173ffffffffffffffffffffffffffffffffffffffff021916908373ffffffffffffffffffffffffffffffffffffffff16021790555086600160006101000a81548173ffffffffffffffffffffffffffffffffffffffff021916908373ffffffffffffffffffffffffffffffffffffffff16021790555085600290816200014791906200080a565b5084600390816200015991906200080a565b50836004819055508260058190555081600681905550806008819055504260078190555050505050505050620008f1565b6000604051905090565b600080fd5b600080fd5b600073ffffffffffffffffffffffffffffffffffffffff82169050919050565b6000620001cb826200019e565b9050919050565b620001dd81620001be565b8114620001e957600080fd5b50565b600081519050620001fd81620001d2565b92915050565b600080fd5b600080fd5b6000601f19601f8301169050919050565b7f4e487b7100000000000000000000000000000000000000000000000000000000600052604160045260246000fd5b62000258826200020d565b810181811067ffffffffffffffff821117156200027a57620002796200021e565b5b80604052505050565b60006200028f6200018a565b90506200029d82826200024d565b919050565b600067ffffffffffffffff821115620002c057620002bf6200021e565b5b620002cb826200020d565b9050602081019050919050565b60005b83811015620002f8578082015181840152602081019050620002db565b60008484015250505050565b60006200031b6200031584620002a2565b62000283565b9050828152602081018484840111156200033a576200033962000208565b5b62000347848285620002d8565b509392505050565b600082601f83011262000367576200036662000203565b5b81516200037984826020860162000304565b91505092915050565b6000819050919050565b620003978162000382565b8114620003a357600080fd5b50565b600081519050620003b7816200038c565b92915050565b600080600080600080600060e0888a031215620003df57620003de62000194565b5b6000620003ef8a828b01620001ec565b975050602088015167ffffffffffffffff81111562000413576200041262000199565b5b620004218a828b016200034f565b965050604088015167ffffffffffffffff81111562000445576200044462000199565b5b620004538a828b016200034f565b9550506060620004668a828b01620003a6565b9450506080620004798a828b01620003a6565b93505060a06200048c8a828b01620003a6565b92505060c06200049f8a828b01620003a6565b91505092959891949750929550565b600082825260208201905092915050565b7f4e6f7420656e6f7567682045544820746f2066756e64207468652077696c6c00600082015250565b6000620004f7601f83620004ae565b91506200050482620004bf565b602082019050919050565b600060208201905081810360008301526200052a81620004e8565b9050919050565b7f4c696d6974206d7573742062652067726561746572207468616e206f7220657160008201527f75616c20746f207472616e7366657220616d6f756e7400000000000000000000602082015250565b60006200058f603683620004ae565b91506200059c8262000531565b604082019050919050565b60006020820190508181036000830152620005c28162000580565b9050919050565b600081519050919050565b7f4e487b7100000000000000000000000000000000000000000000000000000000600052602260045260246000fd5b600060028204905060018216806200061c57607f821691505b602082108103620006325762000631620005d4565b5b50919050565b60008190508160005260206000209050919050565b60006020601f8301049050919050565b600082821b905092915050565b6000600883026200069c7fffffffffffffffffffffffffffffffffffffffffffffffffffffffffffffffff826200065d565b620006a886836200065d565b95508019841693508086168417925050509392505050565b6000819050919050565b6000620006eb620006e5620006df8462000382565b620006c0565b62000382565b9050919050565b6000819050919050565b6200070783620006ca565b6200071f6200071682620006f2565b8484546200066a565b825550505050565b600090565b6200073662000727565b62000743818484620006fc565b505050565b5b818110156200076b576200075f6000826200072c565b60018101905062000749565b5050565b601f821115620007ba57620007848162000638565b6200078f846200064d565b810160208510156200079f578190505b620007b7620007ae856200064d565b83018262000748565b50505b505050565b600082821c905092915050565b6000620007df60001984600802620007bf565b1980831691505092915050565b6000620007fa8383620007cc565b9150826002028217905092915050565b6200081582620005c9565b67ffffffffffffffff8111156200083157620008306200021e565b5b6200083d825462000603565b6200084a8282856200076f565b600060209050601f8311600181146200088257600084156200086d578287015190505b620008798582620007ec565b865550620008e9565b601f198416620008928662000638565b60005b82811015620008bc5784890151825560018201915060208501945060208101905062000895565b86831015620008dc5784890151620008d8601f891682620007cc565b8355505b6001600288020188555050505b505050505050565b61075480620009016000396000f3fe608060405234801561001057600080fd5b50600436106100a95760003560e01c806374324c781161007157806374324c781461014457806388d47070146101625780638da5cb5b1461018057806391f2ebb81461019e578063a4d66daf146101bc578063cf09e0d0146101da576100a9565b806312065fe0146100ae5780632bf683ef146100cc5780632ed9b850146100ea5780635038c31d14610108578063504d27fd14610126575b600080fd5b6100b66101f8565b6040516100c391906104ca565b60405180910390f35b6100d4610200565b6040516100e19190610500565b60405180910390f35b6100f261032d565b6040516100ff91906105ab565b60405180910390f35b6101106103bb565b60405161011d91906104ca565b60405180910390f35b61012e6103c1565b60405161013b91906104ca565b60405180910390f35b61014c6103c7565b60405161015991906104ca565b60405180910390f35b61016a6103cd565b60405161017791906105ab565b60405180910390f35b61018861045b565b604051610195919061060e565b60405180910390f35b6101a661047f565b6040516101b3919061060e565b60405180910390f35b6101c46104a5565b6040516101d191906104ca565b60405180910390f35b6101e26104ab565b6040516101ef91906104ca565b60405180910390f35b600047905090565b6000600454471015610247576040517f08c379a000000000000000000000000000000000000000000000000000000000815260040161023e90610675565b60405180910390fd5b600160009054906101000a900473ffffffffffffffffffffffffffffffffffffffff1673ffffffffffffffffffffffffffffffffffffffff166108fc6004549081150290604051600060405180830381858888f193505050501580156102b1573d6000803e3d6000fd5b50600160009054906101000a900473ffffffffffffffffffffffffffffffffffffffff1673ffffffffffffffffffffffffffffffffffffffff167f219e38014d0e72b05ead8a8d0258ebea4be20d0c2c1de6c08974a08a6c917f6b6004544260405161031e929190610695565b60405180910390a26001905090565b6003805461033a906106ed565b80601f0160208091040260200160405190810160405280929190818152602001828054610366906106ed565b80156103b35780601f10610388576101008083540402835291602001916103b3565b820191906000526020600020905b81548152906001019060200180831161039657829003601f168201915b505050505081565b60055481565b60045481565b60065481565b600280546103da906106ed565b80601f0160208091040260200160405190810160405280929190818152602001828054610406906106ed565b80156104535780601f1061042857610100808354040283529160200191610453565b820191906000526020600020905b81548152906001019060200180831161043657829003601f168201915b505050505081565b60008054906101000a900473ffffffffffffffffffffffffffffffffffffffff1681565b600160009054906101000a900473ffffffffffffffffffffffffffffffffffffffff1681565b60085481565b60075481565b6000819050919050565b6104c4816104b1565b82525050565b60006020820190506104df60008301846104bb565b92915050565b60008115159050919050565b6104fa816104e5565b82525050565b600060208201905061051560008301846104f1565b92915050565b600081519050919050565b600082825260208201905092915050565b60005b8381101561055557808201518184015260208101905061053a565b60008484015250505050565b6000601f19601f8301169050919050565b600061057d8261051b565b6105878185610526565b9350610597818560208601610537565b6105a081610561565b840191505092915050565b600060208201905081810360008301526105c58184610572565b905092915050565b600073ffffffffffffffffffffffffffffffffffffffff82169050919050565b60006105f8826105cd565b9050919050565b610608816105ed565b82525050565b600060208201905061062360008301846105ff565b92915050565b7f4e6f7420656e6f7567682062616c616e63650000000000000000000000000000600082015250565b600061065f601283610526565b915061066a82610629565b602082019050919050565b6000602082019050818103600083015261068e81610652565b9050919050565b60006040820190506106aa60008301856104bb565b6106b760208301846104bb565b9392505050565b7f4e487b7100000000000000000000000000000000000000000000000000000000600052602260045260246000fd5b6000600282049050600182168061070557607f821691505b602082108103610718576107176106be565b5b5091905056fea26469706673582212209e41fae2b2c81e55c02545af63e1f4ea9998cfbd3ee06521a104047fae2bc23a64736f6c63430008180033",
  "linkReferences": {},
  "deployedLinkReferences": {}
}